:100000000C9463000C948B000C948B000C944D07A3
:100010000C944D070C944D070C948B000C944F06D8
:100020000C948B000C948B000C948B000C94C507E3
:100030000C948B000C948B000C948B000C948B0014
:100040000C9403070C948B000C94D1060C94AB0613
:100050000C948B000C948B000C948B000C948B00F4
:100060000C948B000C948B000000000024002700EF
:100070002A0000000000250028002B0002000000DC
:100080000800020100000304070000000000000057
:1000900000000000002300260029000404040404DA
:1000A0000404040202020202020303030303030125
:1000B00002040810204080010204081020010204FC
:1000C00008102000C60811241FBECFEFD8E0DEBF05
:1000D000CDBF13E0A0E0B1E0E0EAF7E302C0059095
:1000E0000D92A835B107D9F726E0A8E5B3E001C025
:1000F0001D92A233B207E1F710E0C3E6D0E004C0DE
:100100002197FE010E94D619C236D107C9F70E9475
:10011000A0090C94CE1B0C9400000895AF92BF92DE
:10012000CF92DF92EF92FF920F931F93CF93DF93C3
:100130006C017B018B01040F151FEB015E01AE18F2
:10014000BF08C017D10759F06991D601ED91FC9114
:100150000190F081E02DC6010995892B79F7C50141
:10016000DF91CF911F910F91FF90EF90DF90CF9093
:10017000BF90AF900895FC01538D448D252F30E042
:10018000842F90E0821B930B541710F0CF960895A4
:1001900001970895FC01918D828D981761F0A28DD1
:1001A000AE0FBF2FB11D5D968C91928D9F5F9F7397
:1001B000928F90E008958FEF9FEF0895FC01918D4D
:1001C000828D981731F0828DE80FF11D858D90E0BA
:1001D00008958FEF9FEF0895FC01918D228D892F57
:1001E00090E0805C9F4F821B91098F73992708953F
:1001F0008FE694E00E94EC0021E0892B09F420E0D6
:10020000822F089580E090E0892B29F00E94F80069
:1002100081110C9400000895FC01A48DA80FB92F42
:10022000B11DA35ABF4F2C91848D90E001968F731E
:100230009927848FA689B7892C93A089B1898C913D
:10024000837080648C93938D848D981306C002888C
:10025000F389E02D80818F7D80830895EF92FF9256
:100260000F931F93CF93DF93EC0181E0888F9B8DD9
:100270008C8D98131AC0E889F989808185FF15C093
:100280009FB7F894EE89FF896083E889F9898081B6
:100290008370806480839FBF81E090E0DF91CF9185
:1002A0001F910F91FF90EF900895F62E0B8D10E0A7
:1002B0000F5F1F4F0F731127E02E8C8D8E110CC016
:1002C0000FB607FCFACFE889F989808185FFF5CF61
:1002D000CE010E940C01F1CFEB8DEC0FFD2FF11D33
:1002E000E35AFF4FF0829FB7F8940B8FEA89FB899E
:1002F00080818062CFCF682F8FE694E00C942E012E
:10030000CF93DF93EC01888D8823B9F0AA89BB894C
:10031000E889F9898C9185FD03C0808186FD0DC037
:100320000FB607FCF7CF8C9185FFF2CF808185FF58
:10033000EDCFCE010E940C01E9CFDF91CF9108955E
:10034000833081F028F4813099F08230A9F008954B
:100350008730A9F08830C9F08430B1F480918000F2
:100360008F7D03C0809180008F77809380000895F7
:1003700084B58F7784BD089584B58F7DFBCF809140
:10038000B0008F778093B00008958091B0008F7D8A
:10039000F9CF1F93CF93DF93282F30E0F901E35873
:1003A000FF4F8491F901E155FF4FD491F901E556D2
:1003B000FF4FC491CC23A9F0162F81110E94A001F8
:1003C000EC2FF0E0EE0FFF1FEE58FF4FA591B49118
:1003D0008FB7F894EC91111108C0D095DE23DC930F
:1003E0008FBFDF91CF911F910895DE2BF8CF9091B1
:1003F000000189130BC0ECE7F0E0E4919FEF9093CC
:100400000001E13049F028F0E23061F060E00C9446
:10041000C90110926E00FACF90916F009D7F90936A
:100420006F00F4CF909170009D7F9093700091E0E9
:100430009093B0009091B100987F94609093B10038
:100440001092B300E3CFCF93DF9390E0FC01E1552E
:10045000FF4F249185569F4FFC0184918823D1F052
:1004600090E0880F991FFC01E859FF4FA591B491C6
:10047000FC01EE58FF4FC591D49161110EC09FB79A
:10048000F8948C91E22FE0958E238C932881E223BF
:10049000E8839FBFDF91CF9108958FB7F894EC91D7
:1004A000E22BEC938FBFF6CF1F93CF93DF93182FE0
:1004B000EB0161E00E942302209739F460E0812F74
:1004C000DF91CF911F910C94C901CF3FD10511F459
:1004D00061E0F5CFE12FF0E0E358FF4FE491E33026
:1004E00031F140F4E130B1F0E230E1F0C038D10553
:1004F0007CF7E4CFE73029F1E83059F1E430B1F787
:1005000080918000806280938000D0938B00C093A4
:100510008A0004C084B5806884BDC7BDDF91CF91D7
:100520001F91089584B5806284BDC8BDF7CF8091C6
:100530008000806880938000D0938900C0938800F9
:10054000EDCF8091B00080688093B000C093B3007D
:10055000E5CF8091B00080628093B000C093B4007A
:10056000DDCF8E3008F08E508770806480937C00E1
:1005700080917A00806480937A0080917A0086FD71
:10058000FCCF809178009091790008953FB7F8945E
:1005900080919E0390919F03A091A003B091A1032D
:1005A00026B5A89B05C02F3F19F00196A11DB11DCE
:1005B0003FBFBA2FA92F982F8827BC01CD01620F0A
:1005C000711D811D911D42E0660F771F881F991FC5
:1005D0004A95D1F708958F929F92AF92BF92CF9292
:1005E000DF92EF92FF924B015C010E94C6026B0109
:1005F0007C010E94C6026C197D098E099F09683E24
:10060000734081059105A8F321E0821A9108A108A1
:10061000B10888EEC80E83E0D81EE11CF11C8114DD
:100620009104A104B10429F7FF90EF90DF90CF90DF
:10063000BF90AF909F908F9008952FB7F8946091DE
:100640009A0370919B0380919C0390919D032FBF0F
:1006500008952091A4033091A5032817390771F458
:100660009091A2038091A303981741F0E091A20317
:10067000F0E0E75AFC4F808190E008958FEF9FEF04
:1006800008950895EF92FF920F931F93CF93DF93F6
:10069000DC015C96ED90FC905D97E114F10479F437
:1006A00081E090E013969C938E93129790E080E007
:1006B000DF91CF911F910F91FF90EF900895519688
:1006C000ED91FC91529750968C915097982F909560
:1006D0000FB75E962C915E97122F127021FD6095D8
:1006E000F8942081112319F1282B2083E701219709
:1006F000F1F728E0462F50E0308160FF1AC0382B18
:100700003083E7012197F1F7BA017595679521507C
:1007100089F7112381F08081892380830FBF5C9644
:100720008D919C910197F1F781E090E0C1CF292351
:10073000DCCF3923E5CF9081892BEFCF2091A40323
:100740003091A5032817390761F48091A303209104
:10075000A20390E0805C9F4F821B91098F739927C1
:10076000089590E080E008952091A4033091A503BE
:1007700028173907B9F49091A2038091A303981721
:1007800089F0E091A203F0E0E75AFC4F80812091CC
:10079000A20330E02F5F3F4F2F7333272093A20334
:1007A00090E008958FEF9FEF0895E091A403F091FA
:1007B000A503E817F90769F4A389B4899C91858991
:1007C000809589238C931092A5031092A40381E055
:1007D000089580E0089590E080E00895DC01EC91B8
:1007E000EC3090F511968C91119728E830E0281B99
:1007F000310987FD3395220F331F220F331F6217F4
:10080000730784F012968C9128E532E0281B310999
:1008100087FD3395220F331F220F331F6217730793
:100820000CF49B0122503109220F331F4FB7F8946B
:100830008E2F90E0FC01EE0FFF1FE80FF91FE45F21
:10084000FA4F328321834FBF08950F931F93CF93A5
:10085000DF938C01EB01FC018685882319F060E0B1
:100860000E94C901C536D10554F5CC39FFEFDF0729
:1008700044F070E060E02097D1F0D7FD04C061E063
:1008800006C0CCE9DFEFD195C195D10960E0F80150
:1008900085850E94C9012FEF30E0DE010E94CF194B
:1008A00024E630E040E050E00E94C717B901F801AB
:1008B0008485DF91CF911F910F910C945402C4E66F
:1008C000D0E0DDCF0F93CF93DF93EC01862F6C87C1
:1008D0004D872E870F8761E00E94230261E08D859E
:1008E0000E94230261E08E850E94230261E08D85D3
:1008F0000E94C90160E08E850E94C901FE01E05995
:10090000FF4F81E090E091838083329691838083D2
:100910002A8D3B8D6C9690E080E08217930734F42B
:1009200019921992199219920196F7CFDF91CF91EE
:100930000F910895CF93DF93EB01880F991FFC016E
:10094000E55FFB4F71836083835A9E4FFC0180817A
:10095000918133E0880F991F3A95E1F79B01220FAF
:10096000232F221F330B822B932B80680E947B0145
:10097000CE018F779927DF91CF910C947B01EF9275
:10098000FF920F931F93CF93DF938091B7030E9441
:10099000F7018FEF9FEF90930A04809309049093DF
:1009A00008048093070405EA12E0C0EFEC2EF12C56
:1009B000D801CD91DD918D01D0936404C09363047F
:1009C00060E08C2F0E942302CC0FDD1FC95CDB4F3F
:1009D000F982E882B2E0093B1B0751F7EDE4F1E050
:1009E00060EE70E04FEF5FEF21913191C901880F08
:1009F000991FDC01A95CBB4F6D937C93855F9B4F76
:100A0000DC014D935C93B1E0ED35FB0769F7309362
:100A100064042093630470E060E081E395E00E9449
:100A2000250470E060E085EA95E00E9425041092BC
:100A3000120410921104109222041092210486E8EC
:100A400090E09093540480935304909356048093C1
:100A50005504109228041092270410922A04109230
:100A60002904A9E1B6E02EE236E0EC918E2F90E069
:100A7000FC01EE0FFF1FE80FF91FE45FFA4F8081C2
:100A800086FF02C08F7B808313962A173B0769F786
:100A9000DF91CF911F910F91FF90EF900895FB018F
:100AA00001900020E9F73197AF01461B570B0C94DA
:100AB0008E00CF93DF93EC0188819981009711F02C
:100AC0000E94781A198218821D821C821B821A8247
:100AD000DF91CF910895FC0180819181009711F001
:100AE0000C94781A08950F931F93CF93DF93EC0122
:100AF00088819981009759F02A813B812617370711
:100B000030F081E0DF91CF911F910F9108958B011B
:100B10006F5F7F4F0E94011B009759F09983888374
:100B20001B830A832C813D81232B59F7FC01108202
:100B3000E8CF80E0E7CFEF92FF920F931F93CF9320
:100B4000DF93EC01FB01E080F180E114F10411F18D
:100B50000481158101151105A9F08C819D81080F73
:100B6000191FB801CE010E947305882399F02881CE
:100B700039818C819D81B701820F931F0E94C71B11
:100B80001D830C83CE01DF91CF911F910F91FF90B8
:100B9000EF900895CE010E945905F4CFEF92FF9295
:100BA0000F931F93CF93DF93EC017B018A01BA016E
:100BB0000E94730581110BC0CE010E945905CE0120
:100BC000DF91CF911F910F91FF90EF9008951D83BA
:100BD0000C83B701888199810E94C71BF0CFEF92E7
:100BE000FF920F931F93CF93DF93CDB7DEB762973A
:100BF0000FB6F894DEBF0FBECDBF8C01CB01F8015C
:100C00001182108213821282158214824AE09E01A0
:100C10002F5F3F4F7901B9010E946E16F7010190D5
:100C20000020E9F73197AF014E195F09B701C801FC
:100C30000E94CE0562960FB6F894DEBF0FBECDBF00
:100C4000DF91CF911F910F91FF90EF900895CF9377
:100C5000DF93EC01FB018617970749F060817181F2
:100C60006115710541F0448155810E94CE05CE0188
:100C7000DF91CF9108950E945905F9CFFC011182AF
:100C800010821382128215821482FB0101900020CF
:100C9000E9F73197AF01461B570B0C94CE051F9215
:100CA0000F920FB60F9211242F933F934F935F93A0
:100CB0006F937F938F939F93AF93BF93EF93FF9324
:100CC0008091AB039091AC03A091AD03B091AE03C2
:100CD000892B8A2B8B2BD1F19091A603E091A7034E
:100CE000F091A8038081892780838091AB03909144
:100CF000AC03A091AD03B091AE03181619061A0605
:100D00001B069CF48091AB039091AC03A091AD03C2
:100D1000B091AE030197A109B1098093AB03909301
:100D2000AC03A093AD03B093AE03FF91EF91BF91DD
:100D3000AF919F918F917F916F915F914F913F9173
:100D40002F910F900FBE0F901F901895809100016A
:100D50000E94F701EACF1F920F920FB60F92112453
:100D60002F933F934F935F936F937F938F939F93B3
:100D7000AF93BF93EF93FF938FE694E00E940C0133
:100D8000FF91EF91BF91AF919F918F917F916F9163
:100D90005F914F913F912F910F900FBE0F901F9039
:100DA00018951F920F920FB60F9211242F938F93C5
:100DB0009F93EF93FF93E0917F04F09180048081F3
:100DC000E0918504F091860482FD1BC090818091A2
:100DD00088048F5F8F7320918904821741F0E0911E
:100DE0008804F0E0E159FB4F958F80938804FF91D0
:100DF000EF919F918F912F910F900FBE0F901F90A9
:100E000018958081F4CF1F920F920FB60F92112484
:100E10002F933F938F939F93AF93BF9380919A03A8
:100E200090919B03A0919C03B0919D0330919903F5
:100E300023E0230F2D3758F50196A11DB11D2093F6
:100E4000990380939A0390939B03A0939C03B09380
:100E50009D0380919E0390919F03A091A003B09168
:100E6000A1030196A11DB11D80939E0390939F0342
:100E7000A093A003B093A103BF91AF919F918F91D5
:100E80003F912F910F900FBE0F901F90189526E85D
:100E9000230F0296A11DB11DD2CF1F920F920FB644
:100EA0000F9211242F933F934F935F936F937F93F0
:100EB0008F939F93AF93BF93EF93FF93E091A4031E
:100EC000F091A503309749F0A685B7858585968D65
:100ED00091FF14C09C918923A1F4FF91EF91BF91E0
:100EE000AF919F918F917F916F915F914F913F91C2
:100EF0002F910F900FBE0F901F9018959C918923F2
:100F000061F7A389B4899C918589809589238C9305
:100F1000868997890197F1F7608D718DA685B785D0
:100F2000558538E020E0CB010197F1F7822F90E062
:100F300095958795282F4C91452309F020683150CD
:100F400091F7868D81FD20958091A30390E0019615
:100F50008F7399273091A203381799F0A091A303BA
:100F6000B0E0A75ABC4F2C938093A303828D938D3E
:100F70000197F1F7A389B4898C919589892B8C937A
:100F8000ACCF868D8160868FF1CF1F920F920FB606
:100F90000F9211242F933F934F935F936F937F93FF
:100FA0008F939F93AF93BF93CF93DF93EF93FF9371
:100FB00080915803C0913005D0E087FF24C0109283
:100FC000850010928400809158038F5F80935803AE
:100FD00080915803082E000C990B8C179D0724F460
:100FE000809158038C30C4F18091840090918500E9
:100FF000049680349C4908F47AC0809184009091D2
:101000008500049676C080915803082E000C990B39
:101010008C179D07C4F6E09158038E2FEE0F990BA5
:10102000FC01EE0FFF1FE80FF91FE45FFA4F80810C
:1010300086FFC9CFE09158038E2FEE0F990BFC016C
:10104000EE0FFF1FE80FF91FE45FFA4F808160E0A9
:101050008F730E94C901B7CF209184003091850021
:10106000E09158038E2FEE0F990BFC01EE0FFF1F3E
:10107000E80FF91FE45FFA4F81819281820F931F7D
:101080009093890080938800E09158038E2FEE0F93
:10109000990BFC01EE0FFF1FE80FF91FE45FFA4FF9
:1010A000808186FF11C0E09158038E2FEE0F990BBF
:1010B000FC01EE0FFF1FE80FF91FE45FFA4F80817C
:1010C00061E08F730E94C901FF91EF91DF91CF9191
:1010D000BF91AF919F918F917F916F915F914F9150
:1010E0003F912F910F900FBE0F901F90189580E4A5
:1010F0009CE990938900809388008FEF8093580338
:10110000E3CFCF92DF92EF92FF920F931F93E82FDE
:10111000F92F05C0015011092109310961F19081B0
:1011200096239417B9F305C001501109210931091B
:1011300011F1908196239413F7CFC12CD12CE12C7F
:10114000F12C0AC08FEFC81AD80AE80AF80A0C1561
:101150001D052E053F0579F080818623841791F3C4
:101160006C2D7D2D8E2D9F2D1F910F91FF90EF9057
:10117000DF90CF90089560E070E080E090E01F91F4
:101180000F91FF90EF90DF90CF900895109272042E
:101190001092710488EE93E0A0E0B0E080937304B5
:1011A00090937404A0937504B093760481E093E067
:1011B0009093700480936F0485EC90E090937C048E
:1011C00080937B0484EC90E090937E0480937D0474
:1011D00080EC90E09093800480937F0481EC90E019
:1011E000909382048093810482EC90E09093840435
:1011F0008093830486EC90E090938604809385042A
:10120000109288041092890410928A0410928B0420
:10121000E9E1F6E02FEF48EB5BE0809130058C30A0
:1012200008F08CC091E0980F90933005808390E097
:10123000DC01AA0FBB1FA80FB91FA45FBA4F1296FB
:101240005C934E931197339686E0EE32F80729F7B8
:1012500080E090E0A0EAB0E48093430590934405D9
:10126000A0934505B09346058DEC9CECACE8BFE33C
:101270008093470590934805A0934905B0934A058C
:1012800084E190E090934C0580934B0510929D056E
:1012900010929E0510929F051092A00581E090E0AB
:1012A0009093A2058093A1059093A4058093A30534
:1012B000EDE4F5E0119211921192119285E0ED3971
:1012C000F807C1F780E090E0A0EAB0E48093B705AA
:1012D0009093B805A093B905B093BA058DEC9CEC3A
:1012E000ACE8BFE38093BB059093BC05A093BD051C
:1012F000B093BE0584E190E09093C0058093BF0554
:1013000010921106109212061092130610921406F3
:1013100081E090E09093160680931506909318064E
:1013200080931706E1ECF5E081E196E011921192CD
:10133000119211928E179F07C9F70895208383CFCA
:10134000CF93DF93CDB7DEB7C954D1090FB6F89468
:10135000DEBF0FBECDBF789484B5826084BD84B5F6
:10136000816084BD85B5826085BD85B5816085BDA0
:1013700080916E00816080936E0010928100809158
:1013800081008260809381008091810081608093E0
:101390008100809180008160809380008091B10005
:1013A00084608093B1008091B00081608093B00030
:1013B00080917A00846080937A0080917A008260C4
:1013C00080937A0080917A00816080937A00809186
:1013D0007A00806880937A001092C100E0917F04C7
:1013E000F091800482E08083E0917F04F09180049A
:1013F0001082E0917B04F0917C041082E0917D04E6
:10140000F0917E0480E1808310928704E091830450
:10141000F091840486E08083E0918104F09182045D
:10142000808180618083E0918104F09182048081D9
:1014300088608083E0918104F091820480818068DB
:101440008083E0918104F091820480818F7D80838C
:101450008FE694E00E9480016EE170E080E090E011
:101460000E94EB020EE010E029E030E04CE050E09A
:1014700063E070E081E395E00E9462040FE010E019
:1014800028E030E04DE050E06BE070E085EA95E068
:101490000E9462040E94BF049E012F5F3F4F3901EA
:1014A000CE0180969DAF8CAF8FE694E00E94EC0059
:1014B000892B11F40C9467128FE694E00E94CA0005
:1014C0008C0187FF7EC310926E0410926D04807EA3
:1014D0009927803A910509F430C3FCF480389105CE
:1014E00019F7C801887F99278838910509F4B4C293
:1014F0000CF040C080389105B9F60138110509F4A7
:10150000B3C20CF060C00038110571F60E94BF0430
:1015100081E890E00E947B01C7CF803C910509F4EF
:1015200009C3803E910509F0BFCFC801887F992784
:10153000803F910509F421C3883F910509F41DC33B
:10154000883E910509F0B0CF07701127109306046B
:1015500000930504000F111FF801E556FE4F20818E
:1015600031813093BC032093BB0390936E0480932E
:101570006D0482C28039910509F4A5C288399105AC
:1015800009F092CFC8018C7F99278839910509F419
:10159000BFC28C39910509F087CF90936E04809378
:1015A0006D04037011271093060400930504000FC7
:1015B000111FF801E155FE4F808191819093BC038A
:1015C0008093BB0359C20238110509F494C107384E
:1015D000110509F069CF1C821B8288EE93E0A0E020
:1015E000B0E08D839E83AF83B8878DE891E09A83C6
:1015F0008983188E1F8A1A8E198E1C8E1B8E1E8E42
:101600001D8E6F8D6E7F6D7F6F8F6695617081E02F
:10161000682787E00E94C90161E087E00E942302F9
:10162000E6EBF0E0E491E98BE2EAF0E0E491F0E04F
:10163000EE0FFF1FEE58FF4F859194919B8B8A8B85
:1016400060E084E00E9423028F8D81FD04C061E090
:1016500084E00E94C90184E08D87E3EBF0E0E4912F
:10166000EE87EFE9F0E0E491F0E0EE0FFF1FEF56B8
:10167000FF4F85919491988B8F8785E690E09E8FA0
:101680008D8F81E290E0988F8F8B83E690E09A8F28
:10169000898F82E490E09C8F8B8F809168008460BA
:1016A000809368009D852DE630E0983050F02BE661
:1016B00030E09E3030F02CE630E0963110F030E033
:1016C00020E03D8B2C8B292F30E0983008F02FC183
:1016D00081E001C0880F9A95EAF78E8B8D8D9E8DE3
:1016E0000197F1F78B8D9C8D892BE1F08091A403FC
:1016F0009091A50368167906A9F0009711F00E9451
:10170000D5038F8D8E7F8F8F1092A3031092A2032B
:101710007092A5036092A403EC89FD8980819E8963
:10172000892B808360E473E0CE01C4960E943E065C
:1017300088E0ACADBDAD1D928A95E9F762E370E03B
:1017400080E090E00E94EB028FE694E00E94CA00E5
:1017500024E6289F7001299FF00C11248FE694E065
:101760000E94CA00E80EF91E8E01085D1F4FB701E6
:10177000C801BAE0EB16F1040CF0E6C00E94EF05D8
:101780006FE073E0CE018E960E943E06B801CE0156
:101790008E960E949B05BC01CE01C4960E9427062E
:1017A000CE018E960E946B05C8010E946B0563E115
:1017B00073E0C8010E943E06BE016C5C7F4FC80109
:1017C0000E949B056C01DC011496AD90BC90B2E0C8
:1017D000AB0EB11CB5010E947305882309F40BC13F
:1017E000F60120813181848195816EE373E0820F5F
:1017F000931F0E94C71BD6011596BC92AE921497F8
:10180000B601CE01C4960E942706C8010E946B054E
:101810006CE173E0C3010E944F0562E370E080E079
:1018200090E00E94EB026CE173E0C3010E944F055F
:1018300062E370E080E090E00E94EB0261E273E01E
:10184000C3010E944F0562E370E080E090E00E94D7
:10185000EB026DE273E0C3010E944F0562E370E0AA
:1018600080E090E00E94EB0248AD59AD6CA97DA9E3
:10187000C3010E948E0062E370E080E090E00E946D
:10188000EB0261E473E0C3010E944F0562E370E084
:1018900080E090E00E94EB026EE473E0C3010E94DE
:1018A0004F0562E370E080E090E00E94EB02C3012C
:1018B0000E949E03009709F4A6C0C3010E949E03E4
:1018C00007970CF49CC0C3010E949E030B970CF079
:1018D00096C08AA19BA199A388A38CA19DA19BA33B
:1018E0008AA38EA19FA19DA38CA3C3010E94B403D0
:1018F0009FA38EA3DCCF0091B7031091B80301150D
:10190000110509F4D1CD802F0E94F701000F111F9E
:10191000F801E95CFB4F11821082055F1B4FD80173
:101920001D921C921092B8031092B703BDCD9E3049
:1019300040F42850310981E001C0880F2A95EAF768
:10194000CCCE2E503109F7CFE4E6EE16F1042CF49C
:101950000E94EF0560E173E015CFF8EEEF16F3E0BB
:10196000FF06DCF40E94EF051FA61EA619AA18AAFE
:101970001BAA1AAA80E38AAF1BAEBE01665C7F4F2A
:10198000FB0101900020E9F73197AF01461B570B8F
:10199000CE018E960E94CE05F9CE0E94EF058CA94D
:1019A0009DA90097B9F068A579A56115710581F029
:1019B0004EA95FA92CA53DA54217530748F00E94E8
:1019C000C71B8CA59DA599AF88AF1DA61CA6ECCE04
:1019D0000E94781A88A599A59DAB8CAB8AA59BA57A
:1019E0009FAB8EAB8CA59DA599AF88AF19A618A605
:1019F0001BA61AA6EACFC6010E94590501CFC30152
:101A00000E94B40354CFFE01B0964AE0489F900173
:101A1000499F300D112481919191C097820F931F9E
:101A20000E171F0799F7E816F90699F483E890E076
:101A30000E947B01C3010E94D503CE01C4960E947F
:101A40006B058DE891E09A838983C3010E94D503D9
:101A50002BCD84E890E0ECCF0938110501F18CF42E
:101A60000838110509F020CD10936E0400936D0421
:101A70001092BC031092BB031092BE031092BD03E0
:101A800013CD0A381105D1F00B38110509F00CCD32
:101A90008AE890E0909356048093550405CD909386
:101AA0006E0480936D041092BC031092BB0380E01F
:101AB00091E09093BE038093BD03F6CC1093540441
:101AC00000935304F1CCC8018C7F992790936E0446
:101AD00080936D04C801817099279093BA03809315
:101AE000B903880F991FFC01ED54FE4F808191814D
:101AF0009093BC038093BB0376E0000F111F7A958F
:101B0000E1F7007811271093BE030093BD03CCCCFE
:101B100088E990E090936E0480936D040370112720
:101B20001093060400930504000F111FF801E955F6
:101B3000FE4F42CDC801807F992790936E04809319
:101B40006D04C8018770992790930604809305045B
:101B50009093BA038093B903880F991FFC01E95849
:101B6000FD4F808191819093BC038093BB0334E04F
:101B7000000F111F3A95E1F7C4CF0F701127109392
:101B8000060400930504000F111FF801EB55FD4FEB
:101B9000808191819093640480936304FC01EE0F33
:101BA000FF1FE95CFB4F20813181203F310509F4A3
:101BB0007BCC20EF30E03183208360E00E94230261
:101BC00073CC80916D0490916E04009709F46CCCF5
:101BD000C090BB03D090BC03A090BD03B090BE03E7
:101BE000A02AB12A7601EE0CFF1CF701E55FFB4F3E
:101BF000B182A0828C39910509F41CC30CF011C18B
:101C00008838910509F429C24CF48138910509F40A
:101C1000F5C110926E0410926D0446CC8039910586
:101C200009F4E4C288399105A1F770E060E081E32E
:101C300095E00E94250470E060E085EA95E00E944E
:101C400025040091B7031091B803C016D106E9F03E
:101C50000115110579F0802F0E94F701000F111F67
:101C6000F801E95CFB4F11821082055F1B4FF80100
:101C700011821082D092B803C092B70388E990E035
:101C8000F701E95CFB4F9183808360E08C2D0E941B
:101C90002302F701E55FFB4F80819181FC01EF702A
:101CA000FF2704E0959587950A95E1F787709927B6
:101CB00023E0EE0FFF1F2A95E1F7E80FF91FEE0F63
:101CC000FF1FE954FE4FE080F180809100018C11EC
:101CD000D3C2ECE7F0E0149117FD9BCF61E08C2DAF
:101CE0000E942302112319F0123009F09DC347010D
:101CF000B12CA12C60E072E18AE790E0A501970188
:101D00000E94C71769017A01DA01C9010197A10987
:101D1000B1098F3F9105A105B10509F00CF468C325
:101D200060E472E48FE090E0A50194010E94C7177F
:101D30002150310941095109123009F01AC382E0DA
:101D40002F3F31054105510509F00CF45BC060E9F6
:101D500070ED83E090E0A50194010E94C717215027
:101D600031094109510983E02F3F310541055105F2
:101D700009F00CF447C068E478EE81E090E0A5013A
:101D800094010E94C717215031094109510984E08B
:101D90002F3F310541055105A9F1A4F164E274EF2B
:101DA00080E090E0A50194010E94C71721503109FD
:101DB0004109510985E02F3F31054105510511F1D8
:101DC00008F162E17AE780E090E0A50194010E94C9
:101DD000C717215031094109510986E02F3F3105CC
:101DE0004105510579F070F08AE0F594E794D794B5
:101DF000C7948A95D1F7A70196012150310941096D
:101E0000510987E09091B100987F892B8093B100B0
:101E1000113009F434C3123009F446C31111F9CE5C
:101E2000EFC2803C910509F487C10CF0B8C0803A3C
:101E3000910509F0EECE0091B9031091BA03580153
:101E4000AA0CBB1CC501800F911F9C01275E394F56
:101E50007901D9018C918C3008F05AC061E08C2D49
:101E60000E942302F7018081282F30E0F901EE0F54
:101E7000FF1FE20FF31FE45FFA4F2C2D2F73C22ECA
:101E80009081907CC92AC082D70111961C9211972B
:101E900012961C922CE0622F0E94C319829FB001FF
:101EA000112430E020E0AB01420F531FFA01EE0F86
:101EB000FF1FE40FF51FE45FFA4F908196FD16C0F7
:101EC0002F5F3F4F2C30310571F781110FC01092F9
:101ED000800082E08093810010928500109284003F
:101EE000B19A80916F00826080936F000A0D1B1D74
:101EF000F801E75EF94FE0818E2F90E0FC01EE0FD4
:101F0000FF1FE80FF91FE45FFA4F80818064808330
:101F10000091B9031091BA037801EE0CFF1CF70190
:101F2000E15FFE4FC080D180F701EF5FFE4FD182AD
:101F3000C082E091BB03F091BC03EE0FFF1FE55F91
:101F4000FB4F60817181072E000C880B990B0E945A
:101F5000AA1620E138E545ED50E40E94091720E07B
:101F600030E041E654E40E944F180E942D19F70119
:101F7000E35EFE4F71836083F701E154FC4F6C19FF
:101F80007D0971836083000F111F000F111FF8017D
:101F9000E751FC4F10821182128213823ACE803DAB
:101FA000910509F49AC0883E910509F032CEF701F7
:101FB000E95CFB4F80819181883E910509F429CE2F
:101FC000000F111FF801EB55FD4F00811181F70142
:101FD000E95CFB4F88EE90E09183808361E08C2D7B
:101FE0000E94230260E0802F0E942302000F111F35
:101FF000F801E55FFB4F118210820BCE98012F7024
:1020000033273093060420930504220F331FF90170
:10201000EB55FD4FC080D180D0926404C092630420
:102020007601EE0CFF1CF701E95CFB4F208131814A
:102030002138310531F09183808361E08C2D0E943D
:10204000230204FB662760F9F701E55FFB4F60831D
:1020500011828C2D0E94C901DCCD07E712E0B9EE98
:10206000CB2EB3E0DB2E8BE2E82E81E0F82E95E854
:10207000A92E92E0B92E20ED822E912C34E6532E1B
:10208000D801ED91FD918D01EE0FFF1FE95CFB4F33
:10209000918280820E941D030E94A816F60161931E
:1020A0007193819391936F0180910B0490910C0433
:1020B000589EB001599E700D1124072E000C880BFC
:1020C000990B0E94AA16D7016D937D938D939D93D2
:1020D0007D01A016B106A1F69CCDF701E95CFB4F8E
:1020E000918380830E941D030091B9031091BA036C
:1020F000000F111F000F111FF801E751FC4F7F0166
:102100000E94A816D7016D937D938D939C9313978E
:10211000055D1E4F84E68A9DB0018B9D700D1124D4
:10212000072E000C880B990B0E94AA16F8016083F9
:102130007183828393836DCDF701E95CFB4F9183BB
:1021400080830E941D030091B9031091BA037801A6
:10215000EE0CFF1CEE0CFF1CF701E751FC4F6F016A
:102160000E94A816D6016D937D938D939C9313972F
:10217000000F111FF801E154FC4F60817181072E9F
:10218000000C880B990B0E94AA161B012C01B501AB
:10219000BB0C880B990B0E94AA1620E138E545ED8F
:1021A00050E40E9409179B01AC01C201B1010E94D9
:1021B000BB184B015C0120E030E0A9010E946319CB
:1021C000181664F420E030E04AE754E4C501B40195
:1021D0000E940917F701E55DFE4FA9CFC501B401C3
:1021E000905820E030E04AE754E4F2CFB4E6AB1A6E
:1021F000B108B182A0828091B7039091B803950194
:1022000028233923232B31F00E94F7011092B803C1
:102210001092B7032091B9033091BA0344E7429F6B
:10222000C001439F900D1124B5018F5C9A4F0E940D
:102230002504EFCCF701E95CFB4F208131812C397B
:10224000310531F09183808361E08C2D0E9423025F
:102250002FEF30E0D5010E94CF1924E630E040E0B6
:1022600050E00E94C7173093BE032093BD03B9010D
:102270008C2D0E945402CDCC8F3F09F0CACCC09265
:102280000001ECE7F0E014911F3F09F4C2CC1130DB
:1022900041F150F0123009F446C017FDBACC61E0AC
:1022A0008C2D0E94230220CD14BC15BC84B5826005
:1022B00084BD85B5816085BDC6019927FC01E556C1
:1022C000FF4FE491F0E0EE0FFF1FEE58FF4F259116
:1022D0003491FC01E155FF4FE491E093AA0310E033
:1022E000FDCC109280001092810080918100886066
:1022F0008093810080918100816080938100C6017C
:102300009927FC01E556FF4FE491F0E0EE0FFF1F27
:10231000EE58FF4F25913491FC01E155FF4FE491B8
:10232000E093A903DBCC1092B0001092B100809131
:10233000B00082608093B0008091B1008160809392
:10234000B100C6019927FC01E556FF4FE491F0E08A
:10235000EE0FFF1FEE58FF4F259134913093A803E5
:102360002093A703FC01E155FF4FE491E093A603FE
:10237000B5CC2F3F31054105510509F00CF452C091
:1023800068E478EE81E090E0A50194010E94C7170F
:10239000215031094109510984E011110CCD83E02C
:1023A0002F3F31054105510539F134F162E17AE7FA
:1023B00080E090E0A50194010E94C71721503109E7
:1023C0004109510984E02F3F310541055105A1F034
:1023D00098F09AE0F594E794D794C7949A95D1F73A
:1023E000A7019601215031094109510985E004C036
:1023F0009C0181E0111106CD95B5987F892B85BD93
:1024000027BD8FEF9FEFDC018093B3039093B4035C
:10241000A093B503B093B60380916E008260809361
:102420006E00F7CB82E0E6CFB12CA12C60E072E128
:102430008AE790E0A50197010E94C7172150310952
:102440004109510991E021153105F1E04F0751058E
:102450006CF068E478EE81E090E0A50197010E94BD
:10246000C717215031094109510993E0113009F092
:10247000CFCC80918100887F892B8093810030931D
:102480008900209388008FEF9FEFDC018093AF03DA
:102490009093B003A093B103B093B20380916F0007
:1024A000826080936F00B5CB2093B3008FEF9FEFD6
:1024B000DC018093AB039093AC03A093AD03B09386
:1024C000AE0380917000826080937000A2CB109266
:1024D000060410920504209005043090060497E04D
:1024E000291631040CF094C18101000F111FF8016D
:1024F000E958FD4F80819181909364048093630437
:10250000880F991FFC01E95CFB4F80819181803C21
:10251000910509F05FC05101AA0CBB1CAA0CBB1CA1
:10252000D501A751BC4F3D01CD90DD90ED90FC90C1
:1025300020E030E0A901C701B6010E946319181616
:102540000CF048C00E941D030E94A816A701960126
:102550000E944E186B017C01F501E353FC4FC082D1
:10256000D182E282F382F501E55DFE4F80809180A9
:10257000A280B380A50194010E946319F801E15F74
:10258000FE4FFFAFEEAF98012F5F3E4F22963FAF59
:102590002EAF2297F80187FD96C0E35EFE4F808143
:1025A0009181AEADBFAD8D939C93F90191838083F2
:1025B000D3011D921D921D921C921397F801E15FA9
:1025C000FE4F60817181C801820D931D875E994F16
:1025D0000E94EE03E0916304F0916404EE0FFF1F8C
:1025E000E95CFB4F80819181803D910509F061C0DC
:1025F00020900504309006047101EE0CFF1CEE0CD7
:10260000FF1CF701E751FC4FFFAFEEAF80809180D8
:10261000A280B38020E030E0A901C501B4010E948E
:10262000631918160CF045C00E941D030E94A816DD
:10263000A50194010E944E184B015C0197012353A0
:102640003C4F6901D9018D929D92AD92BC92139736
:10265000F701E55DFE4F4080518062807380A301E9
:1026600092010E9463198101000F111F87FD5EC056
:10267000F801E35EFE4F80819181F801E15FFE4F3A
:1026800091838083F801EF5FFE4F91838083EEADED
:10269000FFAD1082118212821382F801E15FFE4FBA
:1026A00060817181C801820D931D875E994F0E94E0
:1026B000EE03809105049091060401969093060420
:1026C0008093050408CFE154FC4F60817181072E8F
:1026D000000C880B990B0E94AA162B013C01A50146
:1026E0009401C701B6010E94BB189B01AC01C30154
:1026F000B2010E9409176B017C012296EEADFFAD7D
:10270000229760817181072E000C880B990B0E9423
:10271000AA169B01AC01C701B6010E944F180E9486
:102720002D19AEADBFAD6D937C9348CFA30192013F
:10273000C501B4010E94BB184B015C0120E030E0F0
:1027400040E05FE30E94A31618160CF441C0A501F7
:102750009401C501B4010E944F18A50194010E9483
:102760000917D6016D937D938D939C9313979701D1
:1027700023533C4F7901F801E154FC4F6081718192
:10278000072E000C880B990B0E94AA16D7012D91D9
:102790003D914D915C910E9409176B017C01F801FC
:1027A000EF5FFE4F60817181072E000C880B990B43
:1027B0000E94AA169B01AC01C701B6010E944F18E6
:1027C0000E942D19F801E15FFE4F7183608365CF90
:1027D00020E030E040E85FE3C501B4010E944E18FC
:1027E0004B015C01AC019B010E944F18A5019401B3
:1027F0000E9409179B01AC0160E070E080E89FE354
:102800000E944E18F6016083718382839383AFCF59
:102810000E941D030091690410916A0420916B04C9
:1028200030916C04601B710B820B930B6F3171053F
:102830008105910508F47FC080E890E00E947B014B
:102840001092680410926704109266041092650456
:10285000E1EEF2E02296FFAFEEAF22972296AEAD08
:10286000BFAD22976D907D902296BFAFAEAF2297FD
:1028700070926404609263048301000F111FF801D9
:10288000E95CFB4F80819181803E910509F4A7C0EE
:102890000CF061C08A38910509F41DC12DEF32E0BA
:1028A00022968EAD9FAD229728173907B9F6009171
:1028B0006704109168048091090490910A048017BC
:1028C000910791F010930A040093090488E890E0BE
:1028D0000E947B01C8010E947B0188E890E00E9471
:1028E0007B01C8010E947B01009165041091660480
:1028F00080910704909108040817190791F010932C
:102900000804009307048AE890E00E947B01C80154
:102910000E947B018AE890E00E947B01C8010E942E
:102920007B010E941D036093690470936A04809385
:102930006B0490936C0480E090E0892B11F40C946C
:102940004C0A0E94F800882311F40C944C0A0E944F
:1029500000000C944C0A883E910509F45DC0803F4C
:10296000910509F09BCF93013327F901E358FF4FFD
:102970008491F901E155FF4FE490F901E556FF4FCD
:10298000F490FF2009F43AC081110E94A001EF2DBC
:10299000F0E0EE0FFF1FEF56FF4FA591B491EC91C1
:1029A000EE2231E020E009F430E0832F922FF8018D
:1029B000E754FD4F008002C0880F991F0A94E2F788
:1029C000BAE06B167104ECF420916704309168044E
:1029D000822B932B90936804809367045FCF862D9E
:1029E0000E94B102F801E55FFB4F20813181BC01FB
:1029F0008217930709F452CFC3016AC090E080E0C8
:102A0000D6CF2091650430916604822B932B90934E
:102A100066048093650442CFF801E55FFB4F0190A7
:102A2000F081E02DEE0FFF1FEB55FD4FE080F180B0
:102A300060E0862D0E94C90183E090E00197F1F7E4
:102A400061E0862D0E94C90183E290E00197F1F7D1
:102A500060E0862D0E94C901C7019927FC01E1555C
:102A6000FF4F6491FC01E556FF4FE491F0E0EE0F5B
:102A7000FF1FEF56FF4F8591949104EE12E720E07F
:102A800030E0462F0E94810861157105810591058E
:102A900009F404CF6F5F7F4F8F4F9F4F9F70611579
:102AA00071058105910509F4F9CE29E330E040E094
:102AB00050E00E941D18F701EE0FFF1FE55FFB4F6E
:102AC000808191818217930709F4E8CEB901C7018B
:102AD0000E949A04E3CEF801EB57FD4F40805180ED
:102AE000E4E7E49DC001E59D900D11249C012F5C5D
:102AF0003A4F3FAF2EAFD9011F968C910E94B10281
:102B0000EEADFFAD918B808BBC01990F880B990BBB
:102B10000E94AA166B017C01AEADBFAD52968D909E
:102B20009D90AD90BC905597A50194010E94091706
:102B30002AEA31EF42E85FE30E94BB18EEADFFAD39
:102B40006083718382839383E059FF4F2496FFAFA4
:102B5000EEAF249720803180FDE1F49D8001F59D4A
:102B6000100D1124020D131D000F111F000F111F56
:102B7000035B1A4FD8016D917D918D919C91EEADC3
:102B8000FFADE459FF4F2696FFAFEEAF26979B01AE
:102B9000AC010E9409179B01AC012696AEADBFADFA
:102BA00026976D917D918D919C910E944E182A9649
:102BB0006CAF7DAF8EAF9FAF2A97F801C082D182F4
:102BC000E282F382A7019601C701B6010E940917AC
:102BD0002A962CAD3DAD4EAD5FAD2A970E944F18A1
:102BE0006B017C012696AEADBFAD2697CD92DD92EE
:102BF000ED92FC921397BFEF2B1A3B0A2496EEAD91
:102C0000FFAD249731822082AEADBFAD5A968D9133
:102C10009C912816390611F411821082B4E7B49DF4
:102C2000F001B59DF00D1124ED55FA4F2081318151
:102C30002817390724F42F5F3F4F31832083E4E7BF
:102C4000E49D8001E59D100D11240F5C1A4FF801E1
:102C5000EE58FF4F60817181072E000C880B990B95
:102C60000E94AA169B01AC01C701B6010E94BB18C5
:102C70000E946E199B01AC01C501B4010E940917A5
:102C80002AEA31EF42E85FE30E94BB18D8011496AC
:102C90006D937D938D939C93179756962D913D91AF
:102CA0004D915C9159970E94BB18F801608771871C
:102CB000828793872DEC3CEC4CEC5DE30E94091776
:102CC0000E942D19F301EE0FFF1FE55FFB4F2081DE
:102CD00031812617370709F08FCEE0CDBB274A3068
:102CE00031F4992322F4BDE2909581959F4F0C9485
:102CF0007A16BB27FB015527AA27880F991FAA1F01
:102D0000A41710F0A41B83955051B9F7A05DAA3306
:102D100008F0A95DA193009779F7B111B1931192D1
:102D2000CB010C949316DC01FC01672F7191772382
:102D3000E1F7329704C07C916D9370836291AE1776
:102D4000BF07C8F308950E94E51608F481E00895CE
:102D5000E89409C097FB3EF4909580957095619535
:102D60007F4F8F4F9F4F9923A9F0F92F96E9BB27EB
:102D70009395F695879577956795B795F111F8CF67
:102D8000FAF4BB0F11F460FF1BC06F5F7F4F8F4FD2
:102D90009F4F16C0882311F096E911C0772321F0C8
:102DA0009EE8872F762F05C0662371F096E8862F60
:102DB00070E060E02AF09A95660F771F881FDAF7B7
:102DC000880F9695879597F90895990F0008550FE4
:102DD000AA0BE0E8FEEF16161706E807F907C0F0A1
:102DE00012161306E407F50798F0621B730B840BA9
:102DF000950B39F40A2661F0232B242B252B21F483
:102E000008950A2609F4A140A6958FEF811D811D22
:102E100008950E941C170C948D170E947F1738F09C
:102E20000E94861720F0952311F00C9476170C94CD
:102E30007C1711240C94C1170E949E1770F3959F64
:102E4000C1F3950F50E0551F629FF001729FBB27A1
:102E5000F00DB11D639FAA27F00DB11DAA1F649F3D
:102E60006627B00DA11D661F829F2227B00DA11DF0
:102E7000621F739FB00DA11D621F839FA00D611D76
:102E8000221F749F3327A00D611D231F849F600D97
:102E9000211D822F762F6A2F11249F5750409AF0C0
:102EA000F1F088234AF0EE0FFF1FBB1F661F771F4C
:102EB000881F91505040A9F79E3F510580F00C9417
:102EC00076170C94C1175F3FE4F3983ED4F38695D0
:102ED00077956795B795F795E7959F5FC1F7FE2BB7
:102EE000880F911D9695879597F9089597F99F6793
:102EF00080E870E060E008959FEF80EC0895002482
:102F00000A941616170618060906089500240A944E
:102F100012161306140605060895092E0394000CD4
:102F200011F4882352F0BB0F40F4BF2B11F460FF63
:102F300004C06F5F7F4F8F4F9F4F089557FD90588C
:102F4000440F551F59F05F3F71F04795880F97FB6D
:102F5000991F61F09F3F79F0879508951216130627
:102F60001406551FF2CF4695F1DF08C01616170656
:102F70001806991FF1CF869571056105089408958B
:102F8000E894BB2766277727CB0197F90895052E8C
:102F900097FB1EF400940E94DE1757FD07D00E9495
:102FA0001D1807FC03D04EF40C94DE175095409585
:102FB000309521953F4F4F4F5F4F089590958095E5
:102FC000709561957F4F8F4F9F4F08952F923F923D
:102FD0004F925F926F927F928F929F92AF92BF9229
:102FE000CF92DF92EF92FF920F931F93CF93DF93D5
:102FF000CDB7DEB7CA1BDB0B0FB6F894DEBF0FBE32
:10300000CDBF09942A88398848885F846E847D847E
:103010008C849B84AA84B984C884DF80EE80FD8080
:103020000C811B81AA81B981CE0FD11D0FB6F894F6
:10303000DEBF0FBECDBFED010895A1E21A2EAA1B7F
:10304000BB1BFD010DC0AA1FBB1FEE1FFF1FA21758
:10305000B307E407F50720F0A21BB30BE40BF50B55
:10306000661F771F881F991F1A9469F760957095DE
:10307000809590959B01AC01BD01CF010895A29F61
:10308000B001B39FC001A39F700D811D1124911D3C
:10309000B29F700D811D1124911D08955058BB27BA
:1030A000AA270E9466180C948D170E947F1738F08B
:1030B0000E94861720F039F49F3F19F426F40C94EF
:1030C0007C170EF4E095E7FB0C947617E92F0E942D
:1030D0009E1758F3BA17620773078407950720F005
:1030E00079F4A6F50C94C0170EF4E0950B2EBA2FC8
:1030F000A02D0B01B90190010C01CA01A0011124FE
:10310000FF27591B99F0593F50F4503E68F11A16A9
:10311000F040A22F232F342F4427585FF3CF46953A
:1031200037952795A795F0405395C9F77EF41F165C
:10313000BA0B620B730B840BBAF09150A1F0FF0F26
:10314000BB1F661F771F881FC2F70EC0BA0F621F12
:10315000731F841F48F4879577956795B795F79502
:103160009E3F08F0B0CF9395880F08F09927EE0F97
:103170009795879508950E94CF180C948D170E94FB
:10318000861758F00E947F1740F029F45F3F29F01E
:103190000C94761751110C94C1170C947C170E9453
:1031A0009E1768F39923B1F3552391F3951B550BA3
:1031B000BB27AA2762177307840738F09F5F5F4F0A
:1031C000220F331F441FAA1FA9F335D00E2E3AF049
:1031D000E0E832D091505040E695001CCAF72BD061
:1031E000FE2F29D0660F771F881FBB1F26173707B2
:1031F0004807AB07B0E809F0BB0B802DBF01FF27E4
:1032000093585F4F3AF09E3F510578F00C94761733
:103210000C94C1175F3FE4F3983ED4F386957795FD
:103220006795B795F7959F5FC9F7880F911D96959C
:10323000879597F90895E1E0660F771F881FBB1FF8
:10324000621773078407BA0720F0621B730B840BA5
:10325000BA0BEE1F88F7E09508950E943419689420
:10326000B1110C94C11708950E94A61788F09F57BA
:1032700098F0B92F9927B751B0F0E1F0660F771F9A
:10328000881F991F1AF0BA95C9F714C0B13091F090
:103290000E94C017B1E008950C94C017672F782FD3
:1032A0008827B85F39F0B93FCCF386957795679555
:1032B000B395D9F73EF490958095709561957F4FC1
:1032C0008F4F9F4F08950E94E51608F48FEF0895E1
:1032D00019F416F40C947C170C94AE190E94A617DE
:1032E000B8F39923C9F3B6F39F57550B87FF0E9494
:1032F000BC190024A0E640EA9001805856959795A5
:1033000028F4805C660F771F881F20F02617370788
:10331000480730F4621B730B840B202931294A2B98
:10332000A69517940794202531254A2758F7660F4C
:10333000771F881F20F026173707480730F4620BE5
:10334000730B840B200D311D411DA09581F7B90130
:10335000842F9158880F9695879508959F3F31F057
:10336000915020F4879577956795B795880F911DB3
:103370009695879597F9089591505040660F771F5D
:10338000881FD2F70895991B79E004C0991F9617FA
:1033900008F0961B881F7A95C9F7809508950E94BA
:1033A0003F18B7FF0895821B930B0895EE0FFF1F80
:1033B0000590F491E02D09940F931F93CF93DF9321
:1033C0008230910510F482E090E0E0913006F091B7
:1033D000310630E020E0B0E0A0E0309799F421150C
:1033E000310509F44AC0281B390B24303105D8F5C2
:1033F0008A819B816115710589F1FB019383828329
:10340000FE0111C040815181028113814817590783
:10341000E0F04817590799F4109761F012960C9351
:10342000129713961C933296CF01DF91CF911F9183
:103430000F9108950093300610933106F4CF2115B3
:10344000310551F04217530738F0A901DB019A0109
:10345000BD01DF01F801C1CFEF01F9CF9093310633
:1034600080933006CDCFFE01E20FF31F819391933D
:103470002250310939832883D7CF20912E063091ED
:103480002F06232B41F42091490130914A013093BA
:103490002F0620932E0620914701309148012115D7
:1034A000310541F42DB73EB740914B0150914C018D
:1034B000241B350BE0912E06F0912F06E217F3073F
:1034C000A0F42E1B3F0B2817390778F0AC014E5F94
:1034D0005F4F2417350748F04E0F5F1F50932F069C
:1034E00040932E06819391939FCFF0E0E0E09CCF34
:1034F000CF93DF930097E9F0FC0132971382128299
:10350000A0913006B0913106ED0130E020E0109737
:10351000A1F420813181820F931F20912E063091DA
:103520002F062817390709F061C0F0932F06E093A2
:103530002E06DF91CF910895EA01CE17DF07E8F557
:103540004A815B819E0141155105B1F7E901FB8379
:10355000EA8349915991C40FD51FEC17FD0761F417
:10356000808191810296840F951FE9019983888358
:10357000828193819B838A83F0E0E0E012968D91B3
:103580009C9113970097B9F52D913C911197CD011E
:103590000296820F931F20912E0630912F06281736
:1035A000390739F6309751F51092310610923006EE
:1035B000B0932F06A0932E06BCCFD383C283408145
:1035C0005181840F951FC817D90761F44E5F5F4F73
:1035D00088819981480F591F518340838A819B813B
:1035E000938382832115310509F0B0CFF093310622
:1035F000E09330069ECFFD01DC01C0CF1382128222
:10360000D7CFB0E0A0E0E7E0FBE10C94E8178C0135
:10361000009751F4CB010E94DC198C01C801CDB791
:10362000DEB7E0E10C940418FC01E60FF71F9C01E3
:1036300022503109E217F30708F49DC0D901CD915A
:10364000DC911197C617D70798F0C530D10530F334
:10365000CE0104978617970708F3C61BD70B22974E
:10366000C193D1936D937C93CF010E94781AD6CFEA
:103670005B01AC1ABD0A4C018C0E9D1EA091300658
:10368000B0913106512C412CF12CE12C109731F5E1
:1036900080912E0690912F068815990509F05CC03F
:1036A0004616570608F058C080914701909148018E
:1036B000009741F48DB79EB740914B0150914C015A
:1036C000841B950BE817F90708F055C0F0932F06F7
:1036D000E0932E06F90171836083A0CF8D919C91B8
:1036E000119712966C90129713967C901397A815C9
:1036F000B90559F56C0142E0C40ED11CCA14DB04B3
:1037000020F1AC014A195B09DA011296159780F095
:103710006282738251834083D9016D937C93E1145B
:10372000F10471F0D7011396FC93EE93129776CFC4
:1037300022968C0F9D1FF90191838083F301EFCFB7
:10374000F0933106E093300669CF4816590608F425
:103750002C017D01D3019ACFCB010E94DC197C01A1
:10376000009749F0AE01B8010E94BE1BC8010E943B
:10377000781A870153CF10E000E050CFFB01DC0145
:1037800002C001900D9241505040D8F70895FB01BE
:10379000DC0101900D920020E1F70895F894FFCF2D
:1037A000FF84033D078403DC058403DC0584038474
:1037B000033D078403DC058403DC05840384033DA7
:1037C000078403DC058403DC0584030000E1440076
:1037D00000E1440000E1440000E1440000E1440055
:1037E00000E1440000E1440000320680000E000FBA
:1037F000001000110012001300140015000000005A
:1038000000020000000300040005000600000000A4
:10381000000700000000000000080009000A000B7B
:10382000000C000D000E000F000000000042038E8F
:1038300000EB0341039E03B40329030200040005C7
:1038400000060007000A000500060007000A000540
:1038500000060003000B0021004100830006010B5D
:103860000216042D085A10230045008B0015012A6A
:10387000025504A908531125004900930026014B65
:103880000297042D095B1227004E009C0037016E41
:1038900002DD04210B721329005200A5004A019396
:1038A0000227054D0A9A142C005700AF005D01BA9B
:1038B000027505EA0AD4152E005C00B9007201E415
:1038C00002C805900B201731006200C40088011067
:1038D000032006400C801834006800D0009F013F90
:1038E000037D06FA0CF51937006E00DC00B8017094
:1038F00003E006C00D801B3A007500E900D201A468
:10390000034907910E231D3E007B00F700EE01DC0A
:1039100003B8076F0FDE1E0200040007000A001044
:103920000011001200000000000000000000000173
:103930000002000000000000000300010000000081
:103940000000000100020004000500060007000A54
:103950000010001100120013000000000000000120
:10396000000200030004000500060007000000013B
:10397000000200030000000000040005000600072C
:1039800000020004000500060007000A000E000FF8
:1039900000100011001200130014001500000000B8
:1039A000002E018E00BB008001EC00CA00DE00305A
:1039B00030300041542B505357443D0041540D0AC0
:1039C0000041542B524F4C453D300D0A0041542BC1
:1039D000554152543D35373630302C312C300D0A9C
:1039E0000041542B434D4F44453D310D0A00415495
:0839F0002B505357440D0A004F
:00000001FF
