:100000000C9472000C949A000C949A000C942307A0
:100010000C9423070C9423070C949A000C94250647
:100020000C949A000C949A000C949A000C949B07E0
:100030000C949A000C949A000C949A000C949A00D8
:100040000C94D9060C949A000C94A7060C94810683
:100050000C949A000C949A000C949A000C949A00B8
:100060000C949A000C949A0005A84CCDB2D44EB9C9
:100070003836A9020C50B9918688083CA6AAAA2A4B
:10008000BE000000803F00000000240027002A007E
:100090000000000800020100000304070000000047
:1000A00000000000000000002300260029000102DB
:1000B00004081020408001020408102001020408F6
:1000C000102000000000250028002B000404040478
:1000D00004040404020202020202030303030303F2
:1000E0000200570811241FBECFEFD8E0DEBFCDBFFE
:1000F00012E0A0E0B1E0E6E0F2E302C005900D926C
:10010000A03AB107D9F725E0A0EAB2E001C01D92FC
:10011000A834B207E1F710E0C2E7D0E004C02197AD
:10012000FE010E940917C137D107C9F70E943109A2
:100130000C9401190C9400000895AF92BF92CF92D5
:10014000DF92EF92FF920F931F93CF93DF936C0197
:100150007B018B01040F151FEB015E01AE18BF0878
:10016000C017D10759F06991D601ED91FC9101902A
:10017000F081E02DC6010995892B79F7C501DF9142
:10018000CF911F910F91FF90EF90DF90CF90BF9094
:10019000AF900895FC01538D448D252F30E0842FBE
:1001A00090E0821B930B541710F0CF96089501979F
:1001B0000895FC01918D828D981761F0A28DAE0F8C
:1001C000BF2FB11D5D968C91928D9F5F9F73928F13
:1001D00090E008958FEF9FEF0895FC01918D828D3F
:1001E000981731F0828DE80FF11D858D90E008950C
:1001F0008FEF9FEF0895FC01918D228D892F90E064
:10020000805C9F4F821B91098F73992708958EE818
:1002100093E00E94FB0021E0892B09F420E0822F6B
:10022000089580E090E0892B29F00E940701811158
:100230000C9400000895FC01A48DA80FB92FB11DE6
:10024000A35ABF4F2C91848D90E001968F7399270C
:10025000848FA689B7892C93A089B1898C918370EA
:1002600080648C93938D848D981306C00288F389E3
:10027000E02D80818F7D80830895EF92FF920F9310
:100280001F93CF93DF93EC0181E0888F9B8D8C8D42
:1002900098131AC0E889F989808185FF15C09FB736
:1002A000F894EE89FF896083E889F98980818370F9
:1002B000806480839FBF81E090E0DF91CF911F91A8
:1002C0000F91FF90EF900895F62E0B8D10E00F5FC9
:1002D0001F4F0F731127E02E8C8D8E110CC00FB69F
:1002E00007FCFACFE889F989808185FFF5CFCE0137
:1002F0000E941B01F1CFEB8DEC0FFD2FF11DE35A96
:10030000FF4FF0829FB7F8940B8FEA89FB898081B9
:100310008062CFCFCF93DF93EC01888D8823B9F033
:10032000AA89BB89E889F9898C9185FD03C0808100
:1003300086FD0DC00FB607FCF7CF8C9185FFF2CF7D
:10034000808185FFEDCFCE010E941B01E9CFDF91B7
:10035000CF91089590E0FC01E057FF4F2491FC01FC
:10036000E255FF4F3491FC01E453FF4FE491EE233B
:10037000C9F0222339F0233001F1A8F4213019F11A
:10038000223029F1F0E0EE0FFF1FEE53FF4FA59151
:10039000B4918FB7F894EC91611126C030953E234B
:1003A0003C938FBF08952730A9F02830C9F024303E
:1003B00049F7809180008F7D03C0809180008F7706
:1003C00080938000DFCF84B58F7784BDDBCF84B589
:1003D0008F7DFBCF8091B0008F778093B000D2CF1C
:1003E0008091B0008F7DF9CF3E2BDACF9091000144
:1003F00089130BC0E0EEF0E0E4919FEF90930001D1
:10040000E13049F028F0E23061F060E00C94AA019C
:1004100010926E00FACF90916F009D7F90936F00C5
:10042000F4CF909170009D7F9093700091E0909335
:10043000B0009091B100987F94609093B1001092B9
:10044000B300E3CFCF93DF9390E0FC01E255FF4F81
:10045000249184539F4FFC0184918823D1F090E034
:10046000880F991FFC01EA57FF4FA591B491FC0139
:10047000EE53FF4FC591D49161110EC09FB7F89410
:100480008C91E22FE0958E238C932881E223E883E0
:100490009FBFDF91CF9108958FB7F894EC91E22B35
:1004A000EC938FBFF6CF1F93CF93DF93182FEB0101
:1004B00061E00E942202209739F460E0812FDF91F1
:1004C000CF911F910C94AA01CF3FD10511F461E0A7
:1004D000F5CFE12FF0E0E057FF4FE491E33031F149
:1004E00040F4E130B1F0E230E1F0C038D1057CF702
:1004F000E4CFE73029F1E83059F1E430B1F78091E9
:100500008000806280938000D0938B00C0938A002B
:1005100004C084B5806884BDC7BDDF91CF911F91B1
:10052000089584B5806284BDC8BDF7CF80918000F6
:10053000806880938000D0938900C0938800EDCFBD
:100540008091B00080688093B000C093B300E5CF85
:100550008091B00080628093B000C093B400DDCF82
:100560003FB7F8948091E6029091E702A091E802EB
:10057000B091E90226B5A89B05C02F3F19F001965E
:10058000A11DB11D3FBFBA2FA92F982F8827BC01ED
:10059000CD01620F711D811D911D42E0660F771F15
:1005A000881F991F4A95D1F708958F929F92AF9215
:1005B000BF92CF92DF92EF92FF924B015C010E94BB
:1005C000B0026B017C010E94B0026C197D098E099A
:1005D0009F09683E734081059105A8F321E0821AC6
:1005E0009108A108B10888EEC80E83E0D81EE11C6E
:1005F000F11C81149104A104B10429F7FF90EF903C
:10060000DF90CF90BF90AF909F908F9008952FB7BD
:10061000F8946091E2027091E3028091E40290917B
:10062000E5022FBF08952091EC023091ED022817CA
:10063000390771F49091EA028091EB02981741F02A
:10064000E091EA02F0E0EF55FD4F808190E00895DF
:100650008FEF9FEF08950895EF92FF920F931F93EE
:10066000CF93DF93DC015C96ED90FC905D97E114F5
:10067000F10479F481E090E013969C938E931297A5
:1006800090E080E0DF91CF911F910F91FF90EF906C
:1006900008955196ED91FC91529750968C915097F8
:1006A000982F90950FB75E962C915E97122F12702F
:1006B00021FD6095F8942081112319F1282B2083C6
:1006C000E7012197F1F728E0462F50E0308160FFE5
:1006D0001AC0382B3083E7012197F1F7BA017595DD
:1006E0006795215089F7112381F0808189238083C8
:1006F0000FBF5C968D919C910197F1F781E090E09E
:10070000C1CF2923DCCF3923E5CF9081892BEFCFCF
:100710002091EC023091ED022817390761F48091A5
:10072000EB022091EA0290E0805C9F4F821B9109CE
:100730008F739927089590E080E008952091EC024E
:100740003091ED0228173907B9F49091EA028091AF
:10075000EB02981789F0E091EA02F0E0EF55FD4FC7
:1007600080812091EA0230E02F5F3F4F2F733327C3
:100770002093EA0290E008958FEF9FEF0895E091B3
:10078000EC02F091ED02E817F90769F4A389B48946
:100790009C918589809589238C931092ED0210920B
:1007A000EC0281E0089580E0089590E080E00895F3
:1007B000DC01EC91EC3090F511968C91119728E8C2
:1007C00030E0281B310987FD3395220F331F220F9C
:1007D000331F6217730784F012968C9128E532E07C
:1007E000281B310987FD3395220F331F220F331F3A
:1007F000621773070CF49B0122503109220F331F3B
:100800004FB7F8948E2F90E0FC01EE0FFF1FE80F1A
:10081000F91FE55DFB4F328321834FBF08950F938E
:100820001F93CF93DF938C01EB01FC018685882316
:1008300019F060E00E94AA01C536D10554F5CC3903
:10084000FFEFDF0744F070E060E02097D1F0D7FDC4
:1008500004C061E006C0CCE9DFEFD195C195D109B4
:1008600060E0F80185850E94AA012FEF30E0DE01EB
:100870000E94021724E630E040E050E00E94C514D8
:10088000B901F8018485DF91CF911F910F910C94EC
:100890005302C4E6D0E0DDCF0F93CF93DF93EC019A
:1008A000862F6C874D872E870F8761E00E9422027A
:1008B00061E08D850E94220261E08E850E94220205
:1008C00061E08D850E94AA0160E08E850E94AA01E8
:1008D000FE01E059FF4F81E090E0918380833296E2
:1008E000918380832A8D3B8D6C9690E080E0821707
:1008F000930734F419921992199219920196F7CF2D
:10090000DF91CF910F910895EF92FF920F931F9374
:10091000CF93DF938091FF020E94F60101E711E07F
:1009200098EEE92EF12CD801CD91DD918D01D09377
:100930007003C0936F0360E08C2F0E942202CC0FE3
:10094000DD1FCD5BDC4FF982E882B1E00D371B077C
:1009500051F705E611E0C8EEEC2EF12CF801C1913B
:10096000D1918F01D0937003C0936F0360E08C2FFF
:100970000E942202CC0FDD1FCD5BDC4FF982E882A2
:10098000F1E00D361F0751F7E1E5F1E060EE70E0B0
:100990004FEF5FEF21913191C901880F991FDC0161
:1009A000AD5BBC4F6D937C938D5F9C4FDC014D9391
:1009B0005C93B1E0E136FB0769F730937003209355
:1009C0006F0370E060E080E594E00E940F0470E047
:1009D00060E084EC94E00E940F0410920A031092ED
:1009E000090310921A031092190381E890E0909382
:1009F000600380935F03909362038093610310927E
:100A0000200310921F031092220310922103A8E3E7
:100A1000B5E024E435E0EC918E2F90E0FC01EE0F80
:100A2000FF1FE80FF91FE55DFB4F808186FF02C0C5
:100A30008F7B808313962A173B0769F7DF91CF914D
:100A40001F910F91FF90EF900895FB0101900020FE
:100A5000E9F73197AF01461B570B0C949D00CF93DC
:100A6000DF93EC0188819981009711F00E94AB1708
:100A7000198218821D821C821B821A82DF91CF91FB
:100A80000895FC0180819181009711F00C94AB17BF
:100A900008950F931F93CF93DF93EC018881998181
:100AA000009759F02A813B812617370730F081E003
:100AB000DF91CF911F910F9108958B016F5F7F4F51
:100AC0000E943418009759F0998388831B830A8306
:100AD0002C813D81232B59F7FC011082E8CF80E067
:100AE000E7CFEF92FF920F931F93CF93DF93EC0129
:100AF000FB01E080F180E114F10411F10481158122
:100B000001151105A9F08C819D81080F191FB801ED
:100B1000CE010E944905882399F0288139818C8172
:100B20009D81B701820F931F0E94FA181D830C83C9
:100B3000CE01DF91CF911F910F91FF90EF9008951B
:100B4000CE010E942F05F4CFEF92FF920F931F93D7
:100B5000CF93DF93EC017B018A01BA010E94490522
:100B600081110BC0CE010E942F05CE01DF91CF91E4
:100B70001F910F91FF90EF9008951D830C83B70193
:100B8000888199810E94FA18F0CFEF92FF920F931B
:100B90001F93CF93DF93CDB7DEB762970FB6F8946C
:100BA000DEBF0FBECDBF8C01CB01F80111821082D8
:100BB00013821282158214824AE09E012F5F3F4FFA
:100BC0007901B9010E947113F70101900020E9F742
:100BD0003197AF014E195F09B701C8010E94A40502
:100BE00062960FB6F894DEBF0FBECDBFDF91CF91F6
:100BF0001F910F91FF90EF900895CF93DF93EC0139
:100C0000FB018617970749F06081718161157105B5
:100C100041F0448155810E94A405CE01DF91CF911E
:100C200008950E942F05F9CFFC01118210821382D2
:100C3000128215821482FB0101900020E9F731979E
:100C4000AF01461B570B0C94A4051F920F920FB6D1
:100C50000F9211242F933F934F935F936F937F9342
:100C60008F939F93AF93BF93EF93FF938091F30282
:100C70009091F402A091F502B091F602892B8A2B93
:100C80008B2BD1F19091EE02E091EF02F091F00206
:100C90008081892780838091F3029091F402A09152
:100CA000F502B091F602181619061A061B069CF4F6
:100CB0008091F3029091F402A091F502B091F602B6
:100CC0000197A109B1098093F3029093F402A093D4
:100CD000F502B093F602FF91EF91BF91AF919F9112
:100CE0008F917F916F915F914F913F912F910F90D5
:100CF0000FBE0F901F901895809100010E94F60181
:100D0000EACF1F920F920FB60F9211242F933F93A9
:100D10004F935F936F937F938F939F93AF93BF9303
:100D2000EF93FF938EE893E00E941B01FF91EF91F8
:100D3000BF91AF919F918F917F916F915F914F91F3
:100D40003F912F910F900FBE0F901F9018951F92FB
:100D50000F920FB60F9211242F938F939F93EF93BF
:100D6000FF93E0919E03F0919F038081E091A403A3
:100D7000F091A50382FD1BC090818091A7038F5F36
:100D80008F732091A803821741F0E091A703F0E050
:100D9000E257FC4F958F8093A703FF91EF919F91AE
:100DA0008F912F910F900FBE0F901F9018958081FB
:100DB000F4CF1F920F920FB60F9211242F933F93EF
:100DC0008F939F93AF93BF938091E2029091E30240
:100DD000A091E402B091E5023091E10223E0230FFB
:100DE0002D3758F50196A11DB11D2093E102809386
:100DF000E2029093E302A093E402B093E5028091B3
:100E0000E6029091E702A091E802B091E902019612
:100E1000A11DB11D8093E6029093E702A093E80222
:100E2000B093E902BF91AF919F918F913F912F9124
:100E30000F900FBE0F901F90189526E8230F029673
:100E4000A11DB11DD2CF1F920F920FB60F92112488
:100E50002F933F934F935F936F937F938F939F93C2
:100E6000AF93BF93EF93FF93E091EC02F091ED020B
:100E7000309749F0A685B7858585968D91FF14C07A
:100E80009C918923A1F4FF91EF91BF91AF919F9124
:100E90008F917F916F915F914F913F912F910F9023
:100EA0000FBE0F901F9018959C91892361F7A3891D
:100EB000B4899C918589809589238C9386899789AB
:100EC0000197F1F7608D718DA685B785558538E05E
:100ED00020E0CB010197F1F7822F90E0959587955F
:100EE000282F4C91452309F02068315091F7868DC9
:100EF00081FD20958091EB0290E001968F739927F8
:100F00003091EA02381799F0A091EB02B0E0AF55AA
:100F1000BD4F2C938093EB02828D938D0197F1F757
:100F2000A389B4898C919589892B8C93ACCF868DBC
:100F30008160868FF1CF1F920F920FB60F9211240E
:100F40002F933F934F935F936F937F938F939F93D1
:100F5000AF93BF93CF93DF93EF93FF938091A00262
:100F6000C0914F04D0E087FF24C0109285001092FA
:100F700084008091A0028F5F8093A0028091A002E4
:100F8000082E000C990B8C179D0724F48091A00269
:100F90008C30C4F180918400909185000496803457
:100FA0009C4908F47AC08091840090918500049651
:100FB00076C08091A002082E000C990B8C179D071B
:100FC000C4F6E091A0028E2FEE0F990BFC01EE0FFC
:100FD000FF1FE80FF91FE55DFB4F808186FFC9CF3A
:100FE000E091A0028E2FEE0F990BFC01EE0FFF1F78
:100FF000E80FF91FE55DFB4F808160E08F730E9471
:10100000AA01B7CF2091840030918500E091A00221
:101010008E2FEE0F990BFC01EE0FFF1FE80FF91F4B
:10102000E55DFB4F81819281820F931F9093890030
:1010300080938800E091A0028E2FEE0F990BFC01A7
:10104000EE0FFF1FE80FF91FE55DFB4F808186FF64
:1010500011C0E091A0028E2FEE0F990BFC01EE0F54
:10106000FF1FE80FF91FE55DFB4F808161E08F7383
:101070000E94AA01FF91EF91DF91CF91BF91AF91B3
:101080009F918F917F916F915F914F913F912F91A0
:101090000F900FBE0F901F90189580E49CE99093DD
:1010A0008900809388008FEF8093A002E3CF109295
:1010B00091031092900388EE93E0A0E0B0E080935B
:1010C000920390939303A0939403B093950389E4C0
:1010D00092E090938F0380938E0385EC90E0909341
:1010E0009B0380939A0384EC90E090939D038093FC
:1010F0009C0380EC90E090939F0380939E0381EC8F
:1011000090E09093A1038093A00382EC90E09093F1
:10111000A3038093A20386EC90E09093A5038093B1
:10112000A4031092A7031092A8031092A90310928F
:10113000AA03E8E3F5E02FEF48EB5BE080914F0472
:101140008C3008F08CC091E0980F90934F0480830E
:1011500090E0DC01AA0FBB1FA80FB91FA55DBB4F14
:1011600012965C934E931197339685E0E434F8071A
:1011700029F780E090E0A0EAB0E4809362049093C5
:101180006304A0936404B09365048DEC9CECACE81C
:10119000BFE38093660490936704A0936804B093C0
:1011A000690484E190E090936B0480936A04109248
:1011B000BC041092BD041092BE041092BF0481E0E2
:1011C00090E09093C1048093C0049093C3048093F3
:1011D000C204ECE6F4E0119211921192119284E0B3
:1011E000EC3BF807C1F780E090E0A0EAB0E4809320
:1011F000D6049093D704A093D804B093D9048DEC6F
:101200009CECACE8BFE38093DA049093DB04A093FA
:10121000DC04B093DD0484E190E09093DF048093DC
:10122000DE041092300510923105109232051092B2
:10123000330581E090E090933505809334059093D9
:10124000370580933605E0EEF4E080E395E01192F7
:101250001192119211928E179F07C9F7089520835A
:1012600083CFCF93DF93CDB7DEB7C154D1090FB68B
:10127000F894DEBF0FBECDBF789484B5826084BD84
:1012800084B5816084BD85B5826085BD85B581608A
:1012900085BD80916E00816080936E001092810008
:1012A00080918100826080938100809181008160C3
:1012B0008093810080918000816080938000809184
:1012C000B10084608093B1008091B0008160809310
:1012D000B00080917A00846080937A0080917A00D7
:1012E000826080937A0080917A00816080937A0096
:1012F00080917A00806880937A001092C100E0911A
:101300009E03F0919F0382E08083E0919E03F09121
:101310009F031082E0919A03F0919B031082E09169
:101320009C03F0919D0380E180831092A603E091DD
:10133000A203F091A30386E08083E091A003F091E3
:10134000A103808180618083E091A003F091A103DB
:10135000808188608083E091A003F091A103808167
:1013600080688083E091A003F091A10380818F7D4C
:1013700080838EE893E00E948A016EE170E080E055
:1013800090E00E94D5020EE010E029E030E04CE051
:1013900050E063E070E080E594E00E944C040FE0D0
:1013A00010E028E030E04DE050E06BE070E084ECCD
:1013B00094E00E944C040E9484049E012F5F3F4FE2
:1013C0003901CE0180969DAF8CAF8EE893E00E94EC
:1013D000FB00892B11F40C94C4118EE893E00E9459
:1013E000D9008C0187FFEFC310928D0310928C03FC
:1013F000807E9927803A910509F405C30CF0ACC1B1
:101400008038910511F7C801887F992788389105A0
:1014100009F4D4C20CF0CEC180389105B1F603387E
:10142000110509F4A3C20CF0EEC10038110509F44E
:1014300001C20238110549F61C821B8288EE93E036
:10144000A0E0B0E08D839E83AF83B88783E491E012
:101450009A838983188E1F8A1A8E198E1C8E1B8E72
:101460001E8E1D8E6F8D6E7F6D7F6F8F6695617086
:1014700081E0682787E00E94AA0161E087E00E947E
:101480002202E5EBF0E0E491E98BE3EDF0E0E4919A
:10149000F0E0EE0FFF1FEE53FF4F859194919B8B71
:1014A0008A8B60E084E00E9422028F8D81FD04C05F
:1014B00061E084E00E94AA0184E08D87E2EBF0E025
:1014C000E491EE87E0EDF0E0E491F0E0EE0FFF1F35
:1014D000EC55FF4F85919491988B8F8785E690E02E
:1014E0009E8F8D8F81E290E0988F8F8B83E690E0C6
:1014F0009A8F898F82E490E09C8F8B8F8091680017
:101500008460809368009D852DE630E0983050F02F
:101510002BE630E09E3030F02CE630E0963110F0D3
:1015200030E020E03D8B2C8B292F30E0983008F004
:1015300089C181E001C0880F9A95EAF78E8B8D8D65
:101540009E8D0197F1F78B8D9C8D892BE1F0809119
:10155000EC029091ED0268167906A9F0009711F05F
:101560000E94BF038F8D8E7F8F8F1092EB0210929F
:10157000EA027092ED026092EC02EC89FD898081B2
:101580009E89892B808368E872E0CE01C4960E9410
:10159000140688E0ACADBDAD1D928A95E9F762E313
:1015A00070E080E090E00E94D5028EE893E00E9417
:1015B000D90024E6289F7001299FF00C11248EE8A1
:1015C00093E00E94D900E80EF91E8E01085D1F4FBE
:1015D000B701C801BAE0EB16F1040CF040C10E945B
:1015E000C50567E572E0CE018E960E941406B8012B
:1015F000CE018E960E947105BC01CE01C4960E9458
:10160000FD05CE018E960E944105C8010E9441054C
:101610006BE572E0C8010E941406BE016C5C7F4F4E
:10162000C8010E9471056C01DC011496AD90BC905C
:10163000B2E0AB0EB11CB5010E944905882309F444
:1016400065C1F601208131818481958166E872E06F
:10165000820F931F0E94FA18D6011596BC92AE9283
:101660001497B601CE01C4960E94FD05C8010E94E0
:10167000410564E672E0C3010E94250562E370E063
:1016800080E090E00E94D50264E672E0C3010E940F
:10169000250562E370E080E090E00E94D50269E6F3
:1016A00072E0C3010E94250562E370E080E090E0F3
:1016B0000E94D50265E772E0C3010E94250562E33E
:1016C00070E080E090E00E94D50248AD59AD6CA971
:1016D0007DA9C3010E949D0062E370E080E090E07C
:1016E0000E94D50269E872E0C3010E94250562E309
:1016F00070E080E090E00E94D50266E972E0C301EC
:101700000E94250562E370E080E090E00E94D5022F
:10171000C3010E948803009709F400C1C3010E941D
:10172000880307970CF4F6C0C3010E9488030B9747
:101730000CF0F0C08AA19BA199A388A38CA19DA1C4
:101740009BA38AA38EA19FA19DA38CA3C3010E94EA
:101750009E039FA38EA3DCCF803C910509F496C124
:10176000803E910509F031CEC8018770992790938A
:101770007A0380937903087F1127083E110509F445
:10178000EAC10CF0D5C1003E110509F01ECE880F4C
:10179000991FFC01EF5AFE4F808191819093700355
:1017A00080936F03880F991FFC01ED5BFC4F118341
:1017B00000830BCE8039910521F08839910509F01D
:1017C00004CE80E990E090938D0380938C03C80150
:1017D0008770992790937A038093790390930203FB
:1017E00080930103880F991FFC01E35CFD4F80810A
:1017F00091819093300380932F0374E0000F111FA9
:101800007A95E1F7F9C00538110509F4D0C00CF458
:10181000C7C00638110509F0D8CD10938D03009389
:101820008C031092300310922F0310923203109207
:101830003103CBCD0E94840461E88EE893E00E94DE
:101840003D01C3CD9E3040F42850310981E001C0F4
:10185000880F2A95EAF772CE2E503109F7CFE4E6C9
:10186000EE16F1042CF40E94C50568E572E0BBCECB
:10187000F8EEEF16F3E0FF06DCF40E94C5051FA6A4
:101880001EA619AA18AA1BAA1AAA80E38AAF1BAE21
:10189000BE01665C7F4FFB0101900020E9F73197A4
:1018A000AF01461B570BCE018E960E94A4059FCE1A
:1018B0000E94C5058CA99DA90097B9F068A579A5D6
:1018C0006115710581F04EA95FA92CA53DA54217B0
:1018D000530748F00E94FA188CA59DA599AF88AFD0
:1018E0001DA61CA692CE0E94AB1788A599A59DABFC
:1018F0008CAB8AA59BA59FAB8EAB8CA59DA599AF04
:1019000088AF19A618A61BA61AA6EACFC6010E9480
:101910002F05A7CEC3010E949E03FACEFE01B0960A
:101920004AE0489F9001499F300D11248191919187
:10193000C097820F931F0E171F0799F763E8E816E9
:10194000F90609F064E88EE893E00E943D01C301C6
:101950000E94BF03CE01C4960E94410583E491E03A
:101960009A838983C3010E94BF032FCD0091FF0298
:1019700010910003802F0E94F601000F111FF80143
:10198000ED5BFC4F81E890E0918380830D5F1C4FFD
:10199000F80111821082109200031092FF0215CDFF
:1019A00084E890E09093600380935F030ECD84E819
:1019B00090E0909362038093610307CDC8018C7F10
:1019C000992790938D0380938C03C8018170992788
:1019D0009093020380930103880F991FFC01E35940
:1019E000FE4F808191819093300380932F03F6E026
:1019F000000F111FFA95E1F70078112710933203B9
:101A000000933103E2CCC8018770992790937A0341
:101A1000809379039801207F3327203A310521F103
:101A2000203B310569F1C0906F03D09070037601BF
:101A3000EE0CFF1CF701ED5BFC4F808191812817B4
:101A4000390731F03183208361E08C2D0E9422021E
:101A500003FB662760F9F701ED5FFC4F608311829D
:101A60008C2D0E94AA01B1CC880F991FFC01EF5860
:101A7000FE4F808191819093700380936F03D3CF49
:101A8000880F991FFC01EB59FE4FF3CFC801887FE7
:101A90009927883C910529F03CF4803C910509F098
:101AA00094CC80EC90E08FCE803D910559F1883D3B
:101AB000910509F08ACC90938D0380938C03077075
:101AC000112710937A0300937903000F111FF80177
:101AD000EF58FE4F008111811093300300932F03C4
:101AE00010923203109231038091FF029091000313
:101AF0000817190711F00E94F601109300030093D4
:101B0000FF0263CC90938D0380938C0303701127A5
:101B100010937A0300937903000F111FF801EF5916
:101B2000FE4F808191819093300380932F037DCE6F
:101B3000003F110561F1083F110509F046CC28EF7F
:101B400030E030938D0320938C03880F991FFC01A4
:101B5000EF58FE4FE6CF880F991FFC01EF58FE4F5C
:101B6000808191819093700380936F03FC01EE0F4D
:101B7000FF1FED5BFC4F20813181283E310509F4C8
:101B800024CC1183008360E00E9422021ECC880FC7
:101B9000991FFC01EB59FE4F808191819093700356
:101BA00080936F039C01220F331FF901ED5BFC4F03
:101BB00040815181403F510509F407CC40EF50E08E
:101BC00051834083E0CF80908C0390908D038114EB
:101BD000910409F4FACBA0902F03B0903003E09069
:101BE0003103F0903203E82AF12A6501CC0CDD1CA8
:101BF000F601ED5FFC4FF182E082B0EC8B169104B0
:101C000009F467C0B4F538E88316910409F46BC190
:101C100080E98816910409F44EC196E8891691046A
:101C200019F50E9407030E94A61360938303709323
:101C30008403809385039093860384E6809FB0019C
:101C4000819F700D1124072E000C880B990B0E94A8
:101C5000A81360937B0370937C0380937D03909320
:101C60007E038FE08093870310928D0310928C0384
:101C7000ACCBA8ED8A16910409F459C1B8EF8B16C4
:101C8000910409F45EC3E0ED8E16910469F7F60144
:101C9000ED5BFC4F80819181803D910531F0918217
:101CA000808261E08A2D0E9422022FEF30E0D7016E
:101CB0000E94021724E630E040E050E00E94C51484
:101CC0003093320320933103B9018A2D0E945302CD
:101CD000CBCFF601ED5BFC4F80819181803C91057B
:101CE00009F46FC0E0900103F090020391828082BA
:101CF0008701000F111FC8018E0D9F1D9C01285CDC
:101D00003A4F6901D9018C918C3008F05AC061E0DA
:101D10008A2D0E942202F6018081282F30E0F901ED
:101D2000EE0FFF1FE20FF31FE55DFB4F2A2D2F7310
:101D3000A22E9081907CA92AA082D60111961C9295
:101D4000119712961C922CE0622F0E94F616829F29
:101D5000B001112430E020E0AB01420F531FFA0123
:101D6000EE0FFF1FE40FF51FE55DFB4F908196FD21
:101D700016C02F5F3F4F2C30310571F781110FC016
:101D80001092800082E08093810010928500109272
:101D90008400B19A80916F00826080936F000E0D75
:101DA0001F1DF801E85CFA4FE0818E2F90E0FC01E6
:101DB000EE0FFF1FE80FF91FE55DFB4F8081806488
:101DC00080830091010310910203E0912F03F091B1
:101DD0003003EE0FFF1FED5FFC4F60817181072E16
:101DE000000C880B990B0E94A81320E138E545ED03
:101DF00050E40E94071420E030E041E654E40E94E1
:101E00004D150E942B16A801440F551FFA01EF5CD7
:101E1000FE4F71836083FA01E75DFE4F20813181BF
:101E20007B01E21AF30ACA018F589C4FFC01F18230
:101E3000E0820E940703000F111F000F111F98017D
:101E40002D5C3C4F69010E94A613D6016D937D93D2
:101E50008D939C931397B701FF0C880B990B0E94ED
:101E6000A813F801EF5FFE4F208131814281538139
:101E70000E94B9156B017C0120E030E0A9010E94AD
:101E80006116181684F420E030E04AE754E4C701F4
:101E9000B6010E940714F801EF5EFE4F6083718364
:101EA00082839383E1CEC701B601905820E030E0F1
:101EB0004AE754E4EECF0091010310910203000FB2
:101EC000111F000F111F0F5F1E4FB701FF0C880B72
:101ED000990B0E94A81320E138E545ED50E40E94DB
:101EE0000714F801DBCF24E6E21AF108F182E08260
:101EF0008091FF0290910003970128233923232B1F
:101F000031F00E94F601109200031092FF0220911E
:101F100001033091020344E7429FC001439F900DAB
:101F20001124B701805B9B4F0E940F049DCE70E08F
:101F300060E080E594E00E940F0470E060E084ECD3
:101F400094E00E940F045A2CF601ED5BFC4F808157
:101F50009181883D910531F09182808260E08A2DE7
:101F60000E942202F701EF70FF2704E0F594E79446
:101F70000A95E1F737E0E322FF2483E0EE0FFF1F2D
:101F80008A95E1F7EE0DFF1DEE0FFF1FE358FE4FA0
:101F9000E080F180809100018511A8C0E0EEF0E0C2
:101FA000149117FD61CE61E08A2D0E942202112357
:101FB00019F0123009F072C14701B12CA12C60E078
:101FC00072E18AE790E0A50197010E94C5146901BA
:101FD0007A01DA01C9010197A109B1098F3F910581
:101FE000A105B10509F00CF43DC160E472E48FE095
:101FF00090E0A50194010E94C514215031094109C6
:102000005109123009F0EFC082E02F3F3105410540
:10201000510509F00CF45BC060E970ED83E090E0DD
:10202000A50194010E94C5142150310941095109AB
:1020300083E02F3F31054105510509F00CF447C0FD
:1020400068E478EE81E090E0A50194010E94C51457
:10205000215031094109510984E02F3F31054105E3
:102060005105A9F1A4F164E274EF80E090E0A501CC
:1020700094010E94C514215031094109510985E09C
:102080002F3F31054105510511F108F162E17AE771
:1020900080E090E0A50194010E94C514215031090F
:1020A0004109510986E02F3F31054105510579F07D
:1020B00070F09AE0F594E794D794C7949A95D1F785
:1020C000A7019601215031094109510987E09091FA
:1020D000B100987F892B8093B100113009F409C1B8
:1020E000123009F41BC11111BFCDC4C08F3F09F0DC
:1020F000BBCDA0920001E0EEF0E014911F3F09F487
:10210000B3CD113041F150F0123009F446C017FD43
:10211000ABCD61E08A2D0E9422024BCF14BC15BCCE
:1021200084B5826084BD85B5816085BDC501992770
:10213000FC01E453FF4FE491F0E0EE0FFF1FEE537C
:10214000FF4F25913491FC01E255FF4FE491E0935C
:10215000F20210E028CF109280001092810080914E
:1021600081008860809381008091810081608093EC
:102170008100C5019927FC01E453FF4FE491F0E091
:10218000EE0FFF1FEE53FF4F25913491FC01E255F6
:10219000FF4FE491E093F10206CF1092B00010924D
:1021A000B1008091B00082608093B0008091B10056
:1021B00081608093B100C5019927FC01E453FF4F72
:1021C000E491F0E0EE0FFF1FEE53FF4F25913491A5
:1021D0003093F0022093EF02FC01E255FF4FE491AF
:1021E000E093EE02E0CE2F3F31054105510509F0A5
:1021F0000CF452C068E478EE81E090E0A50194010F
:102200000E94C514215031094109510984E011117E
:1022100037CF83E02F3F31054105510539F134F1C6
:1022200062E17AE780E090E0A50194010E94C51484
:10223000215031094109510984E02F3F3105410501
:102240005105A1F098F08AE0F594E794D794C794EB
:102250008A95D1F7A7019601215031094109510909
:1022600085E004C09C0181E0111131CF95B5987FC4
:10227000892B85BD27BD8FEF9FEFDC018093FB028B
:102280009093FC02A093FD02B093FE0280916E0039
:10229000826080936E00E8CC82E0E6CFB12CA12C66
:1022A00060E072E18AE790E0A50197010E94C51401
:1022B000215031094109510991E02115310581E091
:1022C000480751056CF068E478EE81E090E0A501E4
:1022D00097010E94C514215031094109510993E029
:1022E000113009F0FACE80918100887F892B80938C
:1022F000810030938900209388008FEF9FEFDC01ED
:102300008093F7029093F802A093F902B093FA0237
:1023100080916F00826080936F00A6CC2093B30001
:102320008FEF9FEFDC018093F3029093F402A09370
:10233000F502B093F6028091700082608093700085
:1023400093CCD601AD5BBC4F8D919C911197883F8A
:10235000910509F489CC000F111FF801EF58FE4FC9
:10236000008111818D929C9261E08A2D0E9422024F
:1023700060E0802F0E942202000F111FF801ED5F24
:10238000FC4F1182108270CC80918703882309F45E
:10239000D0C00E9407030E94A613209183033091AE
:1023A000840340918503509186030E944C156B0174
:1023B0007C01C0927F03D0928003E0928103F0926F
:1023C000820380907B0390907C03A0907D03B0906B
:1023D0007E03A50194010E94611687FD39C0109209
:1023E0007A0310927903EE24E394F12C009179039F
:1023F00010917A03043011050CF046C1C801880F12
:10240000991FFC01EF5CFE4F60817181FC01E75D6B
:10241000FE4F71836083FC01EF5DFE4F718360832B
:10242000800F911F885C9A4F0E94D8039701002E5D
:1024300001C0220F0A94EAF78091870382278093D4
:1024400087030F5F1F4F10937A0300937903CECF5A
:10245000A5019401C701B6010E94B91520E030E042
:1024600040E05FE30E944C1520ED3FE049E450E47A
:102470000E9407140E94661620E030E040E85FE307
:102480000E944D1520E030E040E05FE30E94071419
:102490004B015C0180927F0390928003A0928103A4
:1024A000B092820310927A0310927903009179031B
:1024B00010917A03043011050CF0E6C07801EE0C9F
:1024C000FF1CF701EF58FC4F60817181072E000C53
:1024D000880B990B0E94A813A50194010E94071470
:1024E0002B013C01F701EF5DFE4F60817181072EEA
:1024F000000C880B990B0E94A8139B01AC01C3012F
:10250000B2010E944D150E942B16F701E75DFE4FA8
:10251000718360839701200F311FC901885C9A4F36
:102520000E94D8030F5F1F4F10937A030093790323
:10253000BDCF10927A0310927903209079033090E6
:102540007A0394E0291631040CF09EC08101000F3B
:10255000111FF801E35CFD4F80819181909370031E
:1025600080936F03880F991FFC01ED5BFC4F808106
:102570009181803C910509F049C0F801EF5CFE4F64
:10258000E080F180D801A75DBE4FBFAFAEAF8D91A7
:102590009C918E159F05D1F10E9407030E94A613FE
:1025A0006101CC0CDD1CCC0CDD1CF601ED5CFC4F9C
:1025B00020813181428153810E944C154B015C0185
:1025C000F601EF5EFE4F4080518062807380A30170
:1025D00092010E946116F801EF5DFE4F2296FFAF57
:1025E000EEAF229787FD1CC0AEADBFADED92FC9261
:1025F000F182E082F801E75DFE4F60817181C801E0
:10260000820D931D885C9A4F0E94D80380917903B4
:1026100090917A03019690937A03809379038DCFFA
:10262000F801EF58FC4F60817181072E000C880B78
:10263000990B0E94A8136B017C01A3019201C501B3
:10264000B4010E94B9159B01AC01C701B6010E94FB
:1026500007146B017C012296EEADFFAD22976081DD
:102660007181072E000C880B990B0E94A8139B0107
:10267000AC01C701B6010E944D150E942B16AEADEC
:10268000BFAD6D937C93B6CF0E9407030091880382
:102690001091890320918A0330918B03601B710B89
:1026A000820B930B6F3171058105910550F00E94EB
:1026B0000703609388037093890380938A03909340
:1026C0008B0380E090E0892B11F40C94DD090E94CB
:1026D0000701882311F40C94DD090E9400000C947A
:1026E000DD09BB274A3031F4992322F4BDE29095ED
:1026F00081959F4F0C947D13BB27FB015527AA277B
:10270000880F991FAA1FA41710F0A41B839550517E
:10271000B9F7A05DAA3308F0A95DA193009779F7F6
:10272000B111B1931192CB010C949613DC01FC0111
:10273000672F71917723E1F7329704C07C916D93F5
:1027400070836291AE17BF07C8F30895E89409C07B
:1027500097FB3EF490958095709561957F4F8F4FD4
:102760009F4F9923A9F0F92F96E9BB279395F695EA
:10277000879577956795B795F111F8CFFAF4BB0F68
:1027800011F460FF1BC06F5F7F4F8F4F9F4F16C0CC
:10279000882311F096E911C0772321F09EE8872F56
:1027A000762F05C0662371F096E8862F70E060E012
:1027B0002AF09A95660F771F881FDAF7880F96958B
:1027C000879597F90895990F0008550FAA0BE0E82F
:1027D000FEEF16161706E807F907C0F012161306E3
:1027E000E407F50798F0621B730B840B950B39F423
:1027F0000A2661F0232B242B252B21F408950A2689
:1028000009F4A140A6958FEF811D811D08950E94B6
:102810001A140C948B140E947D1438F00E948414B6
:1028200020F0952311F00C9474140C947A14112454
:102830000C94BF140E949C1470F3959FC1F3950FE4
:1028400050E0551F629FF001729FBB27F00DB11D34
:10285000639FAA27F00DB11DAA1F649F6627B00DC4
:10286000A11D661F829F2227B00DA11D621F739FAD
:10287000B00DA11D621F839FA00D611D221F749FBB
:102880003327A00D611D231F849F600D211D822F02
:10289000762F6A2F11249F5750409AF0F1F0882329
:1028A0004AF0EE0FFF1FBB1F661F771F881F915056
:1028B0005040A9F79E3F510580F00C9474140C947D
:1028C000BF145F3FE4F3983ED4F386957795679500
:1028D000B795F795E7959F5FC1F7FE2B880F911D80
:1028E0009695879597F9089597F99F6780E870E026
:1028F00060E008959FEF80EC089500240A94161676
:10290000170618060906089500240A9412161306DD
:10291000140605060895092E0394000C11F488236B
:1029200052F0BB0F40F4BF2B11F460FF04C06F5F87
:102930007F4F8F4F9F4F089557FD9058440F551F5D
:1029400059F05F3F71F04795880F97FB991F61F031
:102950009F3F79F087950895121613061406551FA8
:10296000F2CF4695F1DF08C0161617061806991F14
:10297000F1CF86957105610508940895E894BB2709
:1029800066277727CB0197F90895052E97FB1EF44C
:1029900000940E94DC1457FD07D00E941B1507FC11
:1029A00003D04EF40C94DC1450954095309521954D
:1029B0003F4F4F4F5F4F089590958095709561956B
:1029C0007F4F8F4F9F4F08952F923F924F925F926C
:1029D0006F927F928F929F92AF92BF92CF92DF922F
:1029E000EF92FF920F931F93CF93DF93CDB7DEB794
:1029F000CA1BDB0B0FB6F894DEBF0FBECDBF099428
:102A00002A88398848885F846E847D848C849B847E
:102A1000AA84B984C884DF80EE80FD800C811B818C
:102A2000AA81B981CE0FD11D0FB6F894DEBF0FBEBB
:102A3000CDBFED010895A1E21A2EAA1BBB1BFD011B
:102A40000DC0AA1FBB1FEE1FFF1FA217B307E4078D
:102A5000F50720F0A21BB30BE40BF50B661F771FE5
:102A6000881F991F1A9469F76095709580959095C5
:102A70009B01AC01BD01CF010895A29FB001B39F9E
:102A8000C001A39F700D811D1124911DB29F700D77
:102A9000811D1124911D08955058BB27AA270E941B
:102AA00064150C948B140E947D1438F00E948414D9
:102AB00020F039F49F3F19F426F40C947A140EF4A4
:102AC000E095E7FB0C947414E92F0E949C1458F3D2
:102AD000BA17620773078407950720F079F4A6F503
:102AE0000C94BE140EF4E0950B2EBA2FA02D0B0102
:102AF000B90190010C01CA01A0011124FF27591B43
:102B000099F0593F50F4503E68F11A16F040A22F48
:102B1000232F342F4427585FF3CF469537952795B9
:102B2000A795F0405395C9F77EF41F16BA0B620BB8
:102B3000730B840BBAF09150A1F0FF0FBB1F661FFF
:102B4000771F881FC2F70EC0BA0F621F731F841F42
:102B500048F4879577956795B795F7959E3F08F068
:102B6000B0CF9395880F08F09927EE0F979587952A
:102B700008950E94CD150C948B140E94841458F073
:102B80000E947D1440F029F45F3F29F00C947414E6
:102B900051110C94BF140C947A140E949C1468F385
:102BA0009923B1F3552391F3951B550BBB27AA2706
:102BB00062177307840738F09F5F5F4F220F331F40
:102BC000441FAA1FA9F335D00E2E3AF0E0E832D008
:102BD00091505040E695001CCAF72BD0FE2F29D00B
:102BE000660F771F881FBB1F261737074807AB07DD
:102BF000B0E809F0BB0B802DBF01FF2793585F4F52
:102C00003AF09E3F510578F00C9474140C94BF1464
:102C10005F3FE4F3983ED4F3869577956795B79533
:102C2000F7959F5FC9F7880F911D9695879597F93E
:102C30000895E1E0660F771F881FBB1F62177307B7
:102C40008407BA0720F0621B730B840BBA0BEE1FCC
:102C500088F7E09508950E9432166894B1110C949B
:102C6000BF1408950E94A41488F09F5798F0B92FBC
:102C70009927B751B0F0E1F0660F771F881F991FB1
:102C80001AF0BA95C9F714C0B13091F00E94BE1481
:102C9000B1E008950C94BE14672F782F8827B85F91
:102CA00039F0B93FCCF3869577956795B395D9F709
:102CB0003EF490958095709561957F4F8F4F9F4F13
:102CC00008950E94E31308F48FEF08959F930E94E4
:102CD00070160F9007FCEE5F0C9499160C947A1402
:102CE0000E94A414D8F3E894E0E0BB279F57F0F0CB
:102CF0002AED3FE049EC06C0EE0FBB0F661F771FC1
:102D0000881F28F0B23A62077307840728F0B25A86
:102D1000620B730B840BE3959A9572F7803830F44D
:102D20009A95BB0F661F771F881FD2F790480C94A7
:102D3000AF16EF93E0FF07C0A2EA2AED3FE049ECAF
:102D40005FEB0E9464150E948B140F90039401FCAA
:102D50009058E8E6F0E00C94BB169F3F31F091509C
:102D600020F4879577956795B795880F911D96956F
:102D7000879597F908959F938F937F936F93FF9310
:102D8000EF939B01AC010E940714EF91FF910E9409
:102D9000CF162F913F914F915F910C940714DF93C1
:102DA000CF931F930F93FF92EF92DF927B018C01E1
:102DB000689406C0DA2EEF010E941A14FE01E8940E
:102DC000A5912591359145915591A6F3EF010E946A
:102DD0006415FE019701A801DA9469F7DF90EF907E
:102DE000FF900F911F91CF91DF910895991B79E08A
:102DF00004C0991F961708F0961B881F7A95C9F78B
:102E0000809508950E943D15B7FF0895821B930B8E
:102E10000895EE0FFF1F0590F491E02D09940F9394
:102E20001F93CF93DF938230910510F482E090E0FE
:102E3000E0914605F091470530E020E0B0E0A0E0E9
:102E4000309799F42115310509F44AC0281B390B34
:102E500024303105D8F58A819B816115710589F18E
:102E6000FB0193838283FE0111C040815181028165
:102E7000138148175907E0F04817590799F410973C
:102E800061F012960C93129713961C933296CF0111
:102E9000DF91CF911F910F910895009346051093F4
:102EA0004705F4CF2115310551F04217530738F08B
:102EB000A901DB019A01BD01DF01F801C1CFEF01DA
:102EC000F9CF9093470580934605CDCFFE01E20FE1
:102ED000F31F819391932250310939832883D7CFEF
:102EE0002091440530914505232B41F420913B016D
:102EF00030913C01309345052093440520913901E0
:102F000030913A012115310541F42DB73EB740917A
:102F10003D0150913E01241B350BE0914405F09199
:102F20004505E217F307A0F42E1B3F0B28173907BE
:102F300078F0AC014E5F5F4F2417350748F04E0F15
:102F40005F1F5093450540934405819391939FCF14
:102F5000F0E0E0E09CCFCF93DF930097E9F0FC0135
:102F6000329713821282A0914605B0914705ED0178
:102F700030E020E01097A1F420813181820F931F6F
:102F800020914405309145052817390709F061C0A3
:102F9000F0934505E0934405DF91CF910895EA0150
:102FA000CE17DF07E8F54A815B819E014115510587
:102FB000B1F7E901FB83EA8349915991C40FD51F09
:102FC000EC17FD0761F4808191810296840F951FB3
:102FD000E90199838883828193819B838A83F0E0CE
:102FE000E0E012968D919C9113970097B9F52D9181
:102FF0003C911197CD010296820F931F20914405B9
:10300000309145052817390739F6309751F5109258
:10301000470510924605B0934505A0934405BCCFE3
:10302000D383C28340815181840F951FC817D9076C
:1030300061F44E5F5F4F88819981480F591F51831A
:1030400040838A819B81938382832115310509F016
:10305000B0CFF0934705E09346059ECFFD01DC011C
:10306000C0CF13821282D7CFB0E0A0E0EAE3F8E14C
:103070000C94E6148C01009751F4CB010E940F17B9
:103080008C01C801CDB7DEB7E0E10C940215FC015C
:10309000E60FF71F9C0122503109E217F30708F4ED
:1030A0009DC0D901CD91DC911197C617D70798F033
:1030B000C530D10530F3CE0104978617970708F382
:1030C000C61BD70B2297C193D1936D937C93CF01ED
:1030D0000E94AB17D6CF5B01AC1ABD0A4C018C0E17
:1030E0009D1EA0914605B0914705512C412CF12C15
:1030F000E12C109731F58091440590914505881594
:10310000990509F05CC04616570608F058C0809132
:10311000390190913A01009741F48DB79EB74091E3
:103120003D0150913E01841B950BE817F90708F00B
:1031300055C0F0934505E0934405F9017183608320
:10314000A0CF8D919C91119712966C901297139627
:103150007C901397A815B90559F56C0142E0C40E8F
:10316000D11CCA14DB0420F1AC014A195B09DA0155
:103170001296159780F06282738251834083D90141
:103180006D937C93E114F10471F0D7011396FC93D5
:10319000EE93129776CF22968C0F9D1FF9019183A3
:1031A0008083F301EFCFF0934705E093460569CFA5
:1031B0004816590608F42C017D01D3019ACFCB01A2
:1031C0000E940F177C01009749F0AE01B8010E94E0
:1031D000F118C8010E94AB17870153CF10E000E03F
:1031E00050CFFB01DC0102C001900D9241505040D4
:1031F000D8F70895FB01DC0101900D920020E1F762
:063200000895F894FFCFD1
:10320600FFB0AA2644B0AA2644B0AA2644B0AA26ED
:10321600440000E1440000E1440000E1440000E114
:1032260044DC05DC05DC05DC05DC05DC05DC05DC51
:1032360005DC05DC05DC05DC050000480580000032
:103246000000002C039D00D5032B0388039E031367
:10325600030E000F001000110012001300140015D9
:103266000005000600100011001200130003000BF9
:1032760000020004000500060007000A00210041C4
:1032860000830006010B0216042D085A1023004580
:10329600008B0015012A025504A90853112500497F
:1032A60000930026014B0297042D095B1227004E5E
:1032B600009C0037016E02DD04210B7213290052B7
:1032C60000A5004A01930227054D0A9A142C0057BF
:1032D60000AF005D01BA027505EA0AD4152E005C3E
:1032E60000B9007201E402C805900B201731006294
:1032F60000C400880110032006400C8018340068C2
:1033060000D0009F013F037D06FA0CF51937006EC9
:1033160000DC00B8017003E006C00D801B3A0075A2
:1033260000E900D201A4034907910E231D3E007B4C
:1033360000F700EE01DC03B8076F0FDE1E02000582
:103346000006000A00000000003D019D00CA008A38
:1033560001FB00D900ED003030300041542B5053B2
:1033660057443D0041540D0A0041542B524F4C45E1
:103376003D300D0A0041542B554152543D353736E8
:1033860030302C312C300D0A0041542B434D4F4424
:10339600453D310D0A0041542B505357440D0A0048
:00000001FF
