:100000000C9472000C949A000C949A000C945C0767
:100010000C945C070C945C070C949A000C945E069C
:100020000C949A000C949A000C949A000C94D407A7
:100030000C949A000C949A000C949A000C949A00D8
:100040000C9412070C949A000C94E0060C94BA06D7
:100050000C949A000C949A000C949A000C949A00B8
:100060000C949A000C949A0005A84CCDB2D44EB9C9
:100070003836A9020C50B9918688083CA6AAAA2A4B
:10008000BE000000803F00000000240027002A007E
:1000900000000000250028002B00020000000800DE
:1000A000020100000304070000000000000000003F
:1000B00000000023002600290004040404040404B2
:1000C0000402020202020203030303030301020407
:1000D00008102040800102040810200102040810CA
:1000E0002000D50811241FBECFEFD8E0DEBFCDBF62
:1000F00013E0A0E0B1E0EAE4F8E302C005900D925D
:10010000A835B107D9F726E0A8E5B3E001C01D92F4
:10011000A631B207E1F710E0C2E7D0E004C02197B2
:10012000FE010E942B1AC137D107C9F70E94AF09FF
:100130000C94231C0C9400000895AF92BF92CF92B0
:10014000DF92EF92FF920F931F93CF93DF936C0197
:100150007B018B01040F151FEB015E01AE18BF0878
:10016000C017D10759F06991D601ED91FC9101902A
:10017000F081E02DC6010995892B79F7C501DF9142
:10018000CF911F910F91FF90EF90DF90CF90BF9094
:10019000AF900895FC01538D448D252F30E0842FBE
:1001A00090E0821B930B541710F0CF96089501979F
:1001B0000895FC01918D828D981761F0A28DAE0F8C
:1001C000BF2FB11D5D968C91928D9F5F9F73928F13
:1001D00090E008958FEF9FEF0895FC01918D828D3F
:1001E000981731F0828DE80FF11D858D90E008950C
:1001F0008FEF9FEF0895FC01918D228D892F90E064
:10020000805C9F4F821B91098F739927089583E526
:1002100094E00E94FB0021E0892B09F420E0822F6A
:10022000089580E090E0892B29F00E940701811158
:100230000C9400000895FC01A48DA80FB92FB11DE6
:10024000A35ABF4F2C91848D90E001968F7399270C
:10025000848FA689B7892C93A089B1898C918370EA
:1002600080648C93938D848D981306C00288F389E3
:10027000E02D80818F7D80830895EF92FF920F9310
:100280001F93CF93DF93EC0181E0888F9B8D8C8D42
:1002900098131AC0E889F989808185FF15C09FB736
:1002A000F894EE89FF896083E889F98980818370F9
:1002B000806480839FBF81E090E0DF91CF911F91A8
:1002C0000F91FF90EF900895F62E0B8D10E00F5FC9
:1002D0001F4F0F731127E02E8C8D8E110CC00FB69F
:1002E00007FCFACFE889F989808185FFF5CFCE0137
:1002F0000E941B01F1CFEB8DEC0FFD2FF11DE35A96
:10030000FF4FF0829FB7F8940B8FEA89FB898081B9
:100310008062CFCF682F83E594E00C943D01CF93AA
:10032000DF93EC01888D8823B9F0AA89BB89E8891D
:10033000F9898C9185FD03C0808186FD0DC00FB6C3
:1003400007FCF7CF8C9185FFF2CF808185FFEDCF41
:10035000CE010E941B01E9CFDF91CF910895833038
:1003600081F028F4813099F08230A9F00895873027
:10037000A9F08830C9F08430B1F4809180008F7D7D
:1003800003C0809180008F7780938000089584B5AA
:100390008F7784BD089584B58F7DFBCF8091B000A9
:1003A0008F778093B00008958091B0008F7DF9CF52
:1003B0001F93CF93DF93282F30E0F901E556FF4FCD
:1003C0008491F901E353FF4FD491F901E754FF4FB2
:1003D000C491CC23A9F0162F81110E94AF01EC2FFC
:1003E000F0E0EE0FFF1FE057FF4FA591B4918FB7DC
:1003F000F894EC91111108C0D095DE23DC938FBFE7
:10040000DF91CF911F910895DE2BF8CF90910001DD
:1004100089130BC0EAE9F0E0E4919FEF90930001AB
:10042000E13049F028F0E23061F060E00C94D8014E
:1004300010926E00FACF90916F009D7F90936F00A5
:10044000F4CF909170009D7F9093700091E0909315
:10045000B0009091B100987F94609093B100109299
:10046000B300E3CFCF93DF9390E0FC01E353FF4F62
:10047000249187549F4FFC0184918823D1F090E010
:10048000880F991FFC01EA57FF4FA591B491FC0119
:10049000E057FF4FC591D49161110EC09FB7F894FA
:1004A0008C91E22FE0958E238C932881E223E883C0
:1004B0009FBFDF91CF9108958FB7F894EC91E22B15
:1004C000EC938FBFF6CF1F93CF93DF93182FEB01E1
:1004D00061E00E943202209739F460E0812FDF91C1
:1004E000CF911F910C94D801CF3FD10511F461E059
:1004F000F5CFE12FF0E0E556FF4FE491E33031F125
:1005000040F4E130B1F0E230E1F0C038D1057CF7E1
:10051000E4CFE73029F1E83059F1E430B1F78091C8
:100520008000806280938000D0938B00C0938A000B
:1005300004C084B5806884BDC7BDDF91CF911F9191
:10054000089584B5806284BDC8BDF7CF80918000D6
:10055000806880938000D0938900C0938800EDCF9D
:100560008091B00080688093B000C093B300E5CF65
:100570008091B00080628093B000C093B400DDCF62
:100580008E3008F08E508770806480937C0080915C
:100590007A00806480937A0080917A0086FDFCCF97
:1005A000809178009091790008953FB7F8948091F8
:1005B0009E0390919F03A091A003B091A10326B543
:1005C000A89B05C02F3F19F00196A11DB11D3FBF8B
:1005D000BA2FA92F982F8827BC01CD01620F711D5A
:1005E000811D911D42E0660F771F881F991F4A9554
:1005F000D1F708958F929F92AF92BF92CF92DF92E0
:10060000EF92FF924B015C010E94D5026B017C01CD
:100610000E94D5026C197D098E099F09683E7340BE
:1006200081059105A8F321E0821A9108A108B1087B
:1006300088EEC80E83E0D81EE11CF11C81149104E1
:10064000A104B10429F7FF90EF90DF90CF90BF9005
:10065000AF909F908F9008952FB7F89460919A0370
:1006600070919B0380919C0390919D032FBF0895EF
:100670002091A4033091A5032817390771F49091B4
:10068000A2038091A303981741F0E091A203F0E048
:10069000E75AFC4F808190E008958FEF9FEF089517
:1006A0000895EF92FF920F931F93CF93DF93DC0196
:1006B0005C96ED90FC905D97E114F10479F481E093
:1006C00090E013969C938E93129790E080E0DF91D8
:1006D000CF911F910F91FF90EF9008955196ED915A
:1006E000FC91529750968C915097982F90950FB7F8
:1006F0005E962C915E97122F127021FD6095F894F2
:100700002081112319F1282B2083E7012197F1F78C
:1007100028E0462F50E0308160FF1AC0382B30832C
:10072000E7012197F1F7BA0175956795215089F78F
:10073000112381F08081892380830FBF5C968D9186
:100740009C910197F1F781E090E0C1CF2923DCCFA4
:100750003923E5CF9081892BEFCF2091A4033091ED
:10076000A5032817390761F48091A3032091A20300
:1007700090E0805C9F4F821B91098F7399270895A9
:1007800090E080E008952091A4033091A5032817FC
:100790003907B9F49091A2038091A303981789F0C7
:1007A000E091A203F0E0E75AFC4F80812091A20380
:1007B00030E02F5F3F4F2F7333272093A20390E049
:1007C00008958FEF9FEF0895E091A403F091A503A2
:1007D000E817F90769F4A389B4899C918589809504
:1007E00089238C931092A5031092A40381E00895AD
:1007F00080E0089590E080E00895DC01EC91EC3019
:1008000090F511968C91119728E830E0281B31095A
:1008100087FD3395220F331F220F331F6217730793
:1008200084F012968C9128E532E0281B310987FD6F
:100830003395220F331F220F331F621773070CF4F7
:100840009B0122503109220F331F4FB7F8948E2F8E
:1008500090E0FC01EE0FFF1FE80FF91FE051FB4F86
:10086000328321834FBF08950F931F93CF93DF935C
:100870008C01EB01FC018685882319F060E00E9461
:10088000D801C536D10554F5CC39FFEFDF0744F068
:1008900070E060E02097D1F0D7FD04C061E006C0B1
:1008A000CCE9DFEFD195C195D10960E0F8018585EC
:1008B0000E94D8012FEF30E0DE010E94241A24E6C6
:1008C00030E040E050E00E949A17B901F8018485B9
:1008D000DF91CF911F910F910C946302C4E6D0E099
:1008E000DDCF0F93CF93DF93EC01862F6C874D877D
:1008F0002E870F8761E00E94320261E08D850E94A1
:10090000320261E08E850E94320261E08D850E9494
:10091000D80160E08E850E94D801FE01E059FF4FAA
:1009200081E090E0918380833296918380832A8D49
:100930003B8D6C9690E080E08217930734F4199217
:100940001992199219920196F7CFDF91CF910F91D9
:100950000895CF93DF93EB01880F991FFC01E151BC
:10096000FC4F71836083835A9E4FFC01808191818B
:1009700033E0880F991F3A95E1F79B01220F232F4F
:10098000221F330B822B932B80680E948A01CE0199
:100990008F779927DF91CF910C948A01EF92FF9284
:1009A0000F931F93CF93DF938091B7030E940602AA
:1009B0008FEF9FEF9093EE038093ED039093EC0302
:1009C0008093EB0305EA12E0C0EFEC2EF12CD80186
:1009D000CD91DD918D01D0934804C093470460E030
:1009E0008C2F0E943202CC0FDD1FC55EDB4FF982D7
:1009F000E882B2E0093B1B0751F7EDE4F1E060EE5D
:100A000070E04FEF5FEF21913191C901880F991F7D
:100A1000DC01A55EBB4F6D937C9381519C4FDC0143
:100A20004D935C93B1E0ED35FB0769F730934804D3
:100A30002093470470E060E085E195E00E94340473
:100A400070E060E089E895E00E9434041092F603BB
:100A50001092F503109206041092050486E890E0C7
:100A6000909338048093370490933A048093390428
:100A700010920C0410920B0410920E0410920D04AC
:100A8000ADEFB5E022E136E0EC918E2F90E0FC0175
:100A9000EE0FFF1FE80FF91FE051FB4F808186FF2B
:100AA00002C08F7B808313962A173B0769F7DF917B
:100AB000CF911F910F91FF90EF900895FB0101904E
:100AC0000020E9F73197AF01461B570B0C949D00AE
:100AD000CF93DF93EC0188819981009711F00E94F8
:100AE000CD1A198218821D821C821B821A82DF9104
:100AF000CF910895FC0180819181009711F00C94B1
:100B0000CD1A08950F931F93CF93DF93EC01888143
:100B10009981009759F02A813B812617370730F0D9
:100B200081E0DF91CF911F910F9108958B016F5F4D
:100B30007F4F0E94561B009759F0998388831B832F
:100B40000A832C813D81232B59F7FC011082E8CFC9
:100B500080E0E7CFEF92FF920F931F93CF93DF9345
:100B6000EC01FB01E080F180E114F10411F104815A
:100B7000158101151105A9F08C819D81080F191FA0
:100B8000B801CE010E948205882399F0288139811D
:100B90008C819D81B701820F931F0E941C1C1D83B5
:100BA0000C83CE01DF91CF911F910F91FF90EF90B9
:100BB0000895CE010E946805F4CFEF92FF920F9343
:100BC0001F93CF93DF93EC017B018A01BA010E944E
:100BD000820581110BC0CE010E946805CE01DF9114
:100BE000CF911F910F91FF90EF9008951D830C837B
:100BF000B701888199810E941C1CF0CFEF92FF926F
:100C00000F931F93CF93DF93CDB7DEB762970FB6E5
:100C1000F894DEBF0FBECDBF8C01CB01F80111826D
:100C2000108213821282158214824AE09E012F5F85
:100C30003F4F7901B9010E944616F701019000204B
:100C4000E9F73197AF014E195F09B701C8010E945A
:100C5000DD0562960FB6F894DEBF0FBECDBFDF9103
:100C6000CF911F910F91FF90EF900895CF93DF9355
:100C7000EC01FB018617970749F0608171816115CE
:100C8000710541F0448155810E94DD05CE01DF915F
:100C9000CF9108950E946805F9CFFC01118210825E
:100CA0001382128215821482FB0101900020E9F761
:100CB0003197AF01461B570B0C94DD051F920F9225
:100CC0000FB60F9211242F933F934F935F936F931F
:100CD0007F938F939F93AF93BF93EF93FF938091F5
:100CE000AB039091AC03A091AD03B091AE03892BFF
:100CF0008A2B8B2BD1F19091A603E091A703F09161
:100D0000A8038081892780838091AB039091AC03F5
:100D1000A091AD03B091AE03181619061A061B0672
:100D20009CF48091AB039091AC03A091AD03B09182
:100D3000AE030197A109B1098093AB039093AC0373
:100D4000A093AD03B093AE03FF91EF91BF91AF912C
:100D50009F918F917F916F915F914F913F912F91D3
:100D60000F900FBE0F901F901895809100010E9468
:100D70000602EACF1F920F920FB60F9211242F9303
:100D80003F934F935F936F937F938F939F93AF9313
:100D9000BF93EF93FF9383E594E00E941B01FF91C3
:100DA000EF91BF91AF919F918F917F916F915F91E3
:100DB0004F913F912F910F900FBE0F901F9018955C
:100DC0001F920F920FB60F9211242F938F939F9320
:100DD000EF93FF93E0916304F09164048081E091CC
:100DE0006904F0916A0482FD1BC0908180916C04BB
:100DF0008F5F8F7320916D04821741F0E0916C0436
:100E0000F0E0ED5AFB4F958F80936C04FF91EF91CA
:100E10009F918F912F910F900FBE0F901F9018955B
:100E20008081F4CF1F920F920FB60F9211242F934F
:100E30003F938F939F93AF93BF9380919A03909129
:100E40009B03A0919C03B0919D033091990323E0F3
:100E5000230F2D3758F50196A11DB11D209399033D
:100E600080939A0390939B03A0939C03B0939D035C
:100E700080919E0390919F03A091A003B091A10344
:100E80000196A11DB11D80939E0390939F03A09393
:100E9000A003B093A103BF91AF919F918F913F9118
:100EA0002F910F900FBE0F901F90189526E8230FDB
:100EB0000296A11DB11DD2CF1F920F920FB60F92B5
:100EC00011242F933F934F935F936F937F938F934F
:100ED0009F93AF93BF93EF93FF93E091A403F0919F
:100EE000A503309749F0A685B7858585968D91FF36
:100EF00014C09C918923A1F4FF91EF91BF91AF9110
:100F00009F918F917F916F915F914F913F912F9121
:100F10000F900FBE0F901F9018959C91892361F739
:100F2000A389B4899C918589809589238C9386892E
:100F300097890197F1F7608D718DA685B7855585E5
:100F400038E020E0CB010197F1F7822F90E09595F2
:100F50008795282F4C91452309F02068315091F74F
:100F6000868D81FD20958091A30390E001968F737B
:100F700099273091A203381799F0A091A303B0E00C
:100F8000A75ABC4F2C938093A303828D938D019716
:100F9000F1F7A389B4898C919589892B8C93ACCF77
:100FA000868D8160868FF1CF1F920F920FB60F92C0
:100FB00011242F933F934F935F936F937F938F935E
:100FC0009F93AF93BF93CF93DF93EF93FF93809162
:100FD0005803C0911405D0E087FF24C0109285000B
:100FE00010928400809158038F5F80935803809102
:100FF0005803082E000C990B8C179D0724F4809140
:1010000058038C30C4F1809184009091850004963F
:1010100080349C4908F47AC08091840090918500C6
:10102000049676C080915803082E000C990B8C17FB
:101030009D07C4F6E09158038E2FEE0F990BFC012B
:10104000EE0FFF1FE80FF91FE051FB4F808186FF75
:10105000C9CFE09158038E2FEE0F990BFC01EE0FD4
:10106000FF1FE80FF91FE051FB4F808160E08F7395
:101070000E94D801B7CF2091840030918500E09183
:1010800058038E2FEE0F990BFC01EE0FFF1FE80F98
:10109000F91FE051FB4F81819281820F931F909342
:1010A000890080938800E09158038E2FEE0F990BF2
:1010B000FC01EE0FFF1FE80FF91FE051FB4F80818D
:1010C00086FF11C0E09158038E2FEE0F990BFC01A3
:1010D000EE0FFF1FE80FF91FE051FB4F808161E029
:1010E0008F730E94D801FF91EF91DF91CF91BF9153
:1010F000AF919F918F917F916F915F914F913F91B0
:101100002F910F900FBE0F901F90189580E49CE9CF
:1011100090938900809388008FEF80935803E3CFEA
:10112000CF92DF92EF92FF920F931F93E82FF92F48
:1011300005C0015011092109310961F190819623FF
:101140009417B9F305C0015011092109310911F1B2
:10115000908196239413F7CFC12CD12CE12CF12C44
:101160000AC08FEFC81AD80AE80AF80A0C151D053C
:101170002E053F0579F080818623841791F36C2D2D
:101180007D2D8E2D9F2D1F910F91FF90EF90DF9061
:10119000CF90089560E070E080E090E01F910F91A3
:1011A000FF90EF90DF90CF90089510925604109228
:1011B000550488EE93E0A0E0B0E08093570490934C
:1011C0005804A0935904B0935A0481E093E090939B
:1011D00054048093530485EC90E0909360048093D2
:1011E0005F0484EC90E0909362048093610480EC4F
:1011F00090E0909364048093630481EC90E090937A
:1012000066048093650482EC90E090936804809378
:10121000670486EC90E090936A04809369041092CE
:101220006C0410926D0410926E0410926F04EDEF36
:10123000F5E02FEF48EB5BE0809114058C3008F06F
:101240008CC091E0980F90931405808390E0DC01AE
:10125000AA0FBB1FA80FB91FA051BB4F12965C93DA
:101260004E931197339686E0E231F80729F780E034
:1012700090E0A0EAB0E48093270590932805A0931E
:101280002905B0932A058DEC9CECACE8BFE3809374
:101290002B0590932C05A0932D05B0932E0584E18A
:1012A00090E09093300580932F0510928105109265
:1012B0008205109283051092840581E090E090935E
:1012C0008605809385059093880580938705E1E3E3
:1012D000F5E0119211921192119285E0E138F80730
:1012E000C1F780E090E0A0EAB0E480939B05909382
:1012F0009C05A0939D05B0939E058DEC9CECACE8FD
:10130000BFE380939F059093A005A093A105B093A0
:10131000A20584E190E09093A4058093A305109228
:10132000F5051092F6051092F7051092F80581E088
:1013300090E09093FA058093F9059093FC058093D3
:10134000FB05E5EAF5E085EF95E011921192119227
:1013500011928E179F07C9F70895208383CFCF93EB
:10136000DF93CDB7DEB7C954D1090FB6F894DEBF0D
:101370000FBECDBF789484B5826084BD84B5816092
:1013800084BD85B5826085BD85B5816085BD809150
:101390006E00816080936E001092810080918100C8
:1013A00082608093810080918100816080938100C0
:1013B000809180008160809380008091B100846082
:1013C0008093B1008091B00081608093B0008091E3
:1013D0007A00846080937A0080917A0082608093A2
:1013E0007A0080917A00816080937A0080917A00FF
:1013F000806880937A001092C100E0916304F091BC
:10140000640482E08083E0916304F09164041082BC
:10141000E0915F04F09160041082E0916104F0912A
:10142000620480E1808310926B04E0916704F09184
:10143000680486E08083E0916504F0916604808111
:1014400080618083E0916504F0916604808188600A
:101450008083E0916504F0916604808180688083D8
:10146000E0916504F091660480818F7D808383E53F
:1014700094E00E948F016EE170E080E090E00E94B5
:10148000FA020EE010E029E030E04CE050E063E0CA
:1014900070E085E195E00E9471040FE010E028E023
:1014A00030E04DE050E06BE070E089E895E00E94AC
:1014B00071040E94CE049E012F5F3F4F3901CE017F
:1014C00080969DAF8CAF83E594E00E94FB00892B52
:1014D00011F40C94761283E594E00E94D9008C01FB
:1014E00087FF7EC31092520410925104807E992788
:1014F000803A910509F430C3FCF48038910519F75E
:10150000C801887F99278838910509F4B4C20CF086
:1015100040C080389105B9F60138110509F4B3C20D
:101520000CF060C00038110571F60E94CE0481E80D
:1015300090E00E948A01C7CF803C910509F409C35D
:10154000803E910509F0BFCFC801887F9927803F71
:10155000910509F421C3883F910509F41DC3883E14
:10156000910509F0B0CF077011271093EA0300939B
:10157000E903000F111FF801E556FE4F208131816C
:101580003093BC032093BB03909352048093510487
:1015900082C28039910509F4A5C28839910509F004
:1015A00092CFC8018C7F99278839910509F4BFC271
:1015B0008C39910509F087CF9093520480935104A0
:1015C000037011271093EA030093E903000F111F22
:1015D000F801E155FE4F808191819093BC03809387
:1015E000BB0359C20238110509F494C1073811052B
:1015F00009F069CF1C821B8288EE93E0A0E0B0E086
:101600008D839E83AF83B8878DE891E09A83898329
:10161000188E1F8A1A8E198E1C8E1B8E1E8E1D8E82
:101620006F8D6E7F6D7F6F8F6695617081E068272B
:1016300087E00E94D80161E087E00E943202E4ED79
:10164000F0E0E491E98BE0ECF0E0E491F0E0EE0F03
:10165000FF1FE057FF4F859194919B8B8A8B60E031
:1016600084E00E9432028F8D81FD04C061E084E03D
:101670000E94D80184E08D87E1EDF0E0E491EE87EF
:10168000EDEBF0E0E491F0E0EE0FFF1FE155FF4FCE
:1016900085919491988B8F8785E690E09E8F8D8FB2
:1016A00081E290E0988F8F8B83E690E09A8F898F0C
:1016B00082E490E09C8F8B8F80916800846080939F
:1016C00068009D852DE630E0983050F02BE630E044
:1016D0009E3030F02CE630E0963110F030E020E023
:1016E0003D8B2C8B292F30E0983008F02FC181E002
:1016F00001C0880F9A95EAF78E8B8D8D9E8D01978C
:10170000F1F78B8D9C8D892BE1F08091A403909152
:10171000A50368167906A9F0009711F00E94E4036A
:101720008F8D8E7F8F8F1092A3031092A2037092E1
:10173000A5036092A403EC89FD8980819E89892B91
:10174000808360E473E0CE01C4960E944D0688E079
:10175000ACADBDAD1D928A95E9F762E370E080E023
:1017600090E00E94FA0283E594E00E94D90024E60A
:10177000289F7001299FF00C112483E594E00E94BA
:10178000D900E80EF91E8E01085D1F4FB701C80190
:10179000BAE0EB16F1040CF0E6C00E94FE056FE023
:1017A00073E0CE018E960E944D06B801CE018E9652
:1017B0000E94AA05BC01CE01C4960E943606CE0145
:1017C0008E960E947A05C8010E947A0563E173E053
:1017D000C8010E944D06BE016C5C7F4FC8010E948B
:1017E000AA056C01DC011496AD90BC90B2E0AB0E82
:1017F000B11CB5010E948205882309F40BC1F601D2
:1018000020813181848195816EE373E0820F931F83
:101810000E941C1CD6011596BC92AE921497B6017C
:10182000CE01C4960E943606C8010E947A056CE17A
:1018300073E0C3010E945E0562E370E080E090E027
:101840000E94FA026CE173E0C3010E945E0562E34C
:1018500070E080E090E00E94FA0261E273E0C30170
:101860000E945E0562E370E080E090E00E94FA0270
:101870006DE273E0C3010E945E0562E370E080E008
:1018800090E00E94FA0248AD59AD6CA97DA9C30150
:101890000E949D0062E370E080E090E00E94FA0206
:1018A00061E473E0C3010E945E0562E370E080E0E2
:1018B00090E00E94FA026EE473E0C3010E945E05AC
:1018C00062E370E080E090E00E94FA02C3010E94AF
:1018D000AD03009709F4A6C0C3010E94AD030797AA
:1018E0000CF49CC0C3010E94AD030B970CF096C092
:1018F0008AA19BA199A388A38CA19DA19BA38AA344
:101900008EA19FA19DA38CA3C3010E94C3039FA38B
:101910008EA3DCCF0091B7031091B8030115110518
:1019200009F4D1CD802F0E940602000F111FF8018B
:10193000E55EFB4F1182108201511C4FD8011D92B0
:101940001C921092B8031092B703BDCD9E3040F4A4
:101950002850310981E001C0880F2A95EAF7CCCEE2
:101960002E503109F7CFE4E6EE16F1042CF40E9474
:10197000FE0560E173E015CFF8EEEF16F3E0FF0629
:10198000DCF40E94FE051FA61EA619AA18AA1BAA0F
:101990001AAA80E38AAF1BAEBE01665C7F4FFB01D3
:1019A00001900020E9F73197AF01461B570BCE019C
:1019B0008E960E94DD05F9CE0E94FE058CA99DA998
:1019C0000097B9F068A579A56115710581F04EA958
:1019D0005FA92CA53DA54217530748F00E941C1C87
:1019E0008CA59DA599AF88AF1DA61CA6ECCE0E9424
:1019F000CD1A88A599A59DAB8CAB8AA59BA59FAB5D
:101A00008EAB8CA59DA599AF88AF19A618A61BA66D
:101A10001AA6EACFC6010E94680501CFC3010E9441
:101A2000C30354CFFE01B0964AE0489F9001499FFE
:101A3000300D112481919191C097820F931F0E1741
:101A40001F0799F7E816F90699F483E890E00E94D9
:101A50008A01C3010E94E403CE01C4960E947A0564
:101A60008DE891E09A838983C3010E94E4032BCD22
:101A700084E890E0ECCF0938110501F18CF40838C6
:101A8000110509F020CD10935204009351041092D7
:101A9000BC031092BB031092BE031092BD0313CD82
:101AA0000A381105D1F00B38110509F00CCD8AE880
:101AB00090E090933A048093390405CD90935204BA
:101AC000809351041092BC031092BB0380E091E01C
:101AD0009093BE038093BD03F6CC1093380400931B
:101AE0003704F1CCC8018C7F9927909352048093DE
:101AF0005104C801817099279093BA038093B90368
:101B0000880F991FFC01ED54FE4F808191819093C5
:101B1000BC038093BB0376E0000F111F7A95E1F7B9
:101B2000007811271093BE030093BD03CCCC88E945
:101B300090E0909352048093510403701127109306
:101B4000EA030093E903000F111FF801E955FE4F66
:101B500042CDC801807F992790935204809351040D
:101B6000C801877099279093EA038093E9039093C3
:101B7000BA038093B903880F991FFC01E958FD4F00
:101B8000808191819093BC038093BB0334E0000F6C
:101B9000111F3A95E1F7C4CF0F7011271093EA0394
:101BA0000093E903000F111FF801EB55FD4F8081F1
:101BB00091819093480480934704FC01EE0FFF1F2E
:101BC000E55EFB4F20813181203F310509F47BCC5C
:101BD00020EF30E03183208360E00E94320273CC3A
:101BE0008091510490915204009709F46CCCC090FC
:101BF000BB03D090BC03A090BD03B090BE03A02A4D
:101C0000B12A7601EE0CFF1CF701E151FC4FB182C5
:101C1000A0828C39910509F41CC30CF011C18838DD
:101C2000910509F429C24CF48138910509F4F5C1F4
:101C3000109252041092510446CC8039910509F457
:101C4000E4C288399105A1F770E060E085E195E094
:101C50000E94340470E060E089E895E00E9434045A
:101C60000091B7031091B803C016D106E9F0011531
:101C7000110579F0802F0E940602000F111FF80154
:101C8000E55EFB4F1182108201511C4FF801118259
:101C90001082D092B803C092B70388E990E0F701B0
:101CA000E55EFB4F9183808360E08C2D0E943202C1
:101CB000F701E151FC4F80819181FC01EF70FF271A
:101CC00004E0959587950A95E1F78770992723E0B9
:101CD000EE0FFF1F2A95E1F7E80FF91FEE0FFF1F28
:101CE000E954FE4FE080F180809100018C11D3C255
:101CF000EAE9F0E0149117FD9BCF61E08C2D0E9482
:101D00003202112319F0123009F09DC34701B12CA2
:101D1000A12C60E072E18AE790E0A50197010E94A2
:101D20009A1769017A01DA01C9010197A109B1097C
:101D30008F3F9105A105B10509F00CF468C360E47B
:101D400072E48FE090E0A50194010E949A1721505F
:101D5000310941095109123009F01AC382E02F3FBD
:101D600031054105510509F00CF45BC060E970EDE7
:101D700083E090E0A50194010E949A172150310957
:101D80004109510983E02F3F31054105510509F013
:101D90000CF447C068E478EE81E090E0A50194017E
:101DA0000E949A17215031094109510984E02F3FBF
:101DB000310541055105A9F1A4F164E274EF80E019
:101DC00090E0A50194010E949A1721503109410920
:101DD000510985E02F3F31054105510511F108F109
:101DE00062E17AE780E090E0A50194010E949A17F1
:101DF000215031094109510986E02F3F3105410544
:101E0000510579F070F09AE0F594E794D794C7946F
:101E10009A95D1F7A701960121503109410951093D
:101E200087E09091B100987F892B8093B1001130A9
:101E300009F434C3123009F446C31111F9CEEFC2CC
:101E4000803C910509F487C10CF0B8C0803A910537
:101E500009F0EECE0091B9031091BA035801AA0C13
:101E6000BB1CC501800F911F9C0123503A4F790183
:101E7000D9018C918C3008F05AC061E08C2D0E9401
:101E80003202F7018081282F30E0F901EE0FFF1FA9
:101E9000E20FF31FE051FB4F2C2D2F73C22E9081C8
:101EA000907CC92AC082D70111961C921197129674
:101EB0001C922CE0622F0E94181A829FB0011124FC
:101EC00030E020E0AB01420F531FFA01EE0FFF1F7D
:101ED000E40FF51FE051FB4F908196FD16C02F5F78
:101EE0003F4F2C30310571F781110FC010928000E7
:101EF00082E0809381001092850010928400B19A54
:101F000080916F00826080936F000A0D1B1DF801A5
:101F1000E350FA4FE0818E2F90E0FC01EE0FFF1F9F
:101F2000E80FF91FE051FB4F8081806480830091AE
:101F3000B9031091BA037801EE0CFF1CF701E15FC1
:101F4000FE4FC080D180F701EF5FFE4FD182C0828B
:101F5000E091BB03F091BC03EE0FFF1FE151FC4F7A
:101F600060817181072E000C880B990B0E947D16F1
:101F700020E138E545ED50E40E94DC1620E030E039
:101F800041E654E40E9422180E940019F701E35E22
:101F9000FE4F71836083F701E154FC4F6C197D099A
:101FA00071836083000F111F000F111FF801E353AD
:101FB000FC4F10821182128213823ACE803D91052D
:101FC00009F49AC0883E910509F032CEF701E55E2A
:101FD000FB4F80819181883E910509F429CE000F45
:101FE000111FF801EB55FD4F00811181F701E55EEE
:101FF000FB4F88EE90E09183808361E08C2D0E94FE
:10200000320260E0802F0E943202000F111FF8019F
:10201000E151FC4F118210820BCE98012F703327B3
:102020003093EA032093E903220F331FF901EB55A4
:10203000FD4FC080D180D0924804C0924704760101
:10204000EE0CFF1CF701E55EFB4F2081318121384A
:10205000310531F09183808361E08C2D0E94320242
:1020600004FB662760F9F701E151FC4F60831182A0
:102070008C2D0E94D801DCCD07E712E0BDECCB2E01
:10208000B3E0DB2E8BE2E82E81E0F82E95E8A92E56
:1020900092E0B92E20ED822E912C34E6532ED801F9
:1020A000ED91FD918D01EE0FFF1FE55EFB4F9182DB
:1020B00080820E942C030E947B16F601619371932B
:1020C000819391936F018091EF039091F003589E5B
:1020D000B001599E700D1124072E000C880B990B2E
:1020E0000E947D16D7016D937D938D939D937D0105
:1020F000A016B106A1F69CCDF701E55EFB4F9183DA
:1021000080830E942C030091B9031091BA03000F41
:10211000111F000F111FF801E353FC4F7F010E94B4
:102120007B16D7016D937D938D939C931397055DDB
:102130001E4F84E68A9DB0018B9D700D1124072EE1
:10214000000C880B990B0E947D16F8016083718347
:10215000828393836DCDF701E55EFB4F918380838E
:102160000E942C030091B9031091BA037801EE0C80
:10217000FF1CEE0CFF1CF701E353FC4F6F010E94A4
:102180007B16D6016D937D938D939C931397000FCF
:10219000111FF801E154FC4F60817181072E000C82
:1021A000880B990B0E947D161B012C01B501BB0CFD
:1021B000880B990B0E947D1620E138E545ED50E42F
:1021C0000E94DC169B01AC01C201B1010E948E1875
:1021D0004B015C0120E030E0A9010E94361918167D
:1021E00064F420E030E04AE754E4C501B4010E9401
:1021F000DC16F701E55DFE4FA9CFC501B40190588B
:1022000020E030E04AE754E4F2CFB4E6AB1AB1087C
:10221000B182A0828091B7039091B80395012823E1
:102220003923232B31F00E9406021092B80310923A
:10223000B7032091B9033091BA0344E7429FC0012C
:10224000439F900D1124B5018B5E9A4F0E94340478
:10225000EFCCF701E55EFB4F208131812C39310550
:1022600031F09183808361E08C2D0E9432022FEF48
:1022700030E0D5010E94241A24E630E040E050E02E
:102280000E949A173093BE032093BD03B9018C2D91
:102290000E946302CDCC8F3F09F0CACCC0920001EE
:1022A000EAE9F0E014911F3F09F4C2CC113041F18A
:1022B00050F0123009F446C017FDBACC61E08C2D05
:1022C0000E94320220CD14BC15BC84B5826084BD4E
:1022D00085B5816085BDC6019927FC01E754FF4F94
:1022E000E491F0E0EE0FFF1FE057FF4F259134918E
:1022F000FC01E353FF4FE491E093AA0310E0FDCC0F
:1023000010928000109281008091810088608093FB
:10231000810080918100816080938100C6019927AE
:10232000FC01E754FF4FE491F0E0EE0FFF1FE05790
:10233000FF4F25913491FC01E353FF4FE491E0936B
:10234000A903DBCC1092B0001092B1008091B000D4
:1023500082608093B0008091B10081608093B10071
:10236000C6019927FC01E754FF4FE491F0E0EE0F1E
:10237000FF1FE057FF4F259134913093A80320931E
:10238000A703FC01E353FF4FE491E093A603B5CC10
:102390002F3F31054105510509F00CF452C068E4A6
:1023A00078EE81E090E0A50194010E949A172150F7
:1023B00031094109510984E011110CCD83E02F3F0F
:1023C00031054105510539F134F162E17AE780E0E8
:1023D00090E0A50194010E949A172150310941090A
:1023E000510984E02F3F310541055105A1F098F0D6
:1023F0008AE0F594E794D794C7948A95D1F7A7011A
:102400009601215031094109510985E004C09C0120
:1024100081E0111106CD95B5987F892B85BD27BD2B
:102420008FEF9FEFDC018093B3039093B403A093ED
:10243000B503B093B60380916E00826080936E0006
:10244000F7CB82E0E6CFB12CA12C60E072E18AE705
:1024500090E0A50197010E949A1721503109410986
:10246000510991E021153105F1E04F0751056CF05C
:1024700068E478EE81E090E0A50197010E949A1748
:10248000215031094109510993E0113009F0CFCCB5
:1024900080918100887F892B80938100309389000F
:1024A000209388008FEF9FEFDC018093AF03909320
:1024B000B003A093B103B093B20380916F00826028
:1024C00080936F00B5CB2093B3008FEF9FEFDC01BB
:1024D0008093AB039093AC03A093AD03B093AE0392
:1024E00080917000826080937000A2CB1092EA030A
:1024F0001092E9032090E9033090EA0397E029164F
:1025000031040CF05DC18101000F111FF801E95881
:10251000FD4F808191819093480480934704880FF8
:10252000991FFC01E55EFB4F80819181803C910504
:1025300009F058C05101AA0CBB1CAA0CBB1CD50148
:10254000A353BC4F3D01CD90DD90ED90FC9020E079
:1025500030E0A901C701B6010E94361918160CF027
:1025600041C00E942C030E947B16A70196010E9485
:1025700021186B017C01F501E55DFE4F80809180A3
:10258000A280B380A50194010E943619F801E15F91
:10259000FE4FFFAFEEAF98012F5F3E4F22963FAF49
:1025A0002EAF2297F80187FD8AC0E35EFE4F80813F
:1025B0009181AEADBFAD8D939C93F90191838083E2
:1025C000D3011D921D921D921C921397F801E15F99
:1025D000FE4F60817181C801820D931D83509A4F17
:1025E0000E94FD03E0914704F0914804EE0FFF1FA5
:1025F000E55EFB4F80819181803D910509F055C0DA
:10260000E090E903F090EA038701000F111F000F2B
:10261000111FF801E353FC4F6F0180809180A2806D
:10262000B38020E030E0A901C501B4010E94361951
:102630001816DCF50E942C030E947B16A50194015C
:102640000E9421184B015C01F801E55DFE4F4080BE
:10265000518062807380A30192010E943619870124
:10266000000F111F87FD5EC0F801E35EFE4F808101
:102670009181F801E15FFE4F91838083F801EF5F64
:10268000FE4F91838083D6011D921D921D921C9254
:102690001397F801E15FFE4F60817181C8018E0DD3
:1026A0009F1D83509A4F0E94FD038091E9039091F2
:1026B000EA0301969093EA038093E9031BCFE15468
:1026C000FC4F60817181072E000C880B990B0E94D2
:1026D0007D162B013C01A5019401C701B6010E94A2
:1026E0008E189B01AC01C301B2010E94DC166B0184
:1026F0007C012296EEADFFAD229760817181072E9D
:10270000000C880B990B0E947D169B01AC01C70140
:10271000B6010E9422180E940019AEADBFAD6D93A4
:102720007C9354CFA3019201C501B4010E948E187D
:1027300020E030E040E05FE30E94211820ED3FE020
:1027400049E450E40E94DC160E943B1920E030E08E
:1027500040E85FE30E94221820E030E040E05FE3C1
:102760000E94DC164B015C01F801E154FC4F6081D2
:102770007181072E000C880B990B0E947D169B011E
:10278000AC01C501B4010E94DC164B015C01F801EB
:10279000EF5FFE4F60817181072E000C880B990B53
:1027A0000E947D169B01AC01C501B4010E94221854
:1027B0000E940019F801E15FFE4F7183608369CFC9
:1027C0000E942C0300914D0410914E0420914F045F
:1027D00030915004601B710B820B930B6F317105AC
:1027E0008105910508F47FC080E890E00E948A018D
:1027F00010924C0410924B0410924A041092490417
:10280000E1EEF2E02296FFAFEEAF22972296AEAD58
:10281000BFAD22976D907D902296BFAFAEAF22974D
:1028200070924804609247048301000F111FF80161
:10283000E55EFB4F80819181803E910509F4A7C040
:102840000CF061C08A38910509F41DC12DEF32E00A
:1028500022968EAD9FAD229728173907B9F60091C1
:102860004B0410914C048091ED039091EE0380177E
:10287000910791F01093EE030093ED0388E890E048
:102880000E948A01C8010E948A0188E890E00E94A3
:102890008A01C8010E948A010091490410914A04EA
:1028A0008091EB039091EC030817190791F01093B6
:1028B000EC030093EB038AE890E00E948A01C801D0
:1028C0000E948A018AE890E00E948A01C8010E9461
:1028D0008A010E942C0360934D0470934E048093F0
:1028E0004F049093500480E090E0892B11F40C94F5
:1028F0005B0A0E940701882311F40C945B0A0E9472
:1029000000000C945B0A883E910509F45DC0803F8D
:10291000910509F09BCF93013327F901E556FF4F4D
:102920008491F901E353FF4FE490F901E754FF4F1D
:10293000F490FF2009F43AC081110E94AF01EF2DFD
:10294000F0E0EE0FFF1FE155FF4FA591B491EC9120
:10295000EE2231E020E009F430E0832F922FF801DD
:10296000E754FD4F008002C0880F991F0A94E2F7D8
:10297000BAE06B167104ECF420914B0430914C04D6
:10298000822B932B90934C0480934B045FCF862D26
:102990000E94C002F801E151FC4F20813181BC014D
:1029A0008217930709F452CFC3016AC090E080E018
:1029B000D6CF2091490430914A04822B932B9093D7
:1029C0004A048093490442CFF801E151FC4F019041
:1029D000F081E02DEE0FFF1FEB55FD4FE080F18001
:1029E00060E0862D0E94D80183E090E00197F1F726
:1029F00061E0862D0E94D80183E290E00197F1F713
:102A000060E0862D0E94D801C7019927FC01E3539D
:102A1000FF4F6491FC01E754FF4FE491F0E0EE0FAB
:102A2000FF1FE155FF4F8591949104EE12E720E0DE
:102A300030E0462F0E9490086115710581059105CF
:102A400009F404CF6F5F7F4F8F4F9F4F9F706115C9
:102A500071058105910509F4F9CE29E330E040E0E4
:102A600050E00E94F017F701EE0FFF1FE151FC4FFD
:102A7000808191818217930709F4E8CEB901C701DB
:102A80000E94A904E3CEF801EB57FD4F408051802E
:102A9000E4E7E49DC001E59D900D11249C012B5EAF
:102AA0003A4F3FAF2EAFD9011F968C910E94C002C2
:102AB000EEADFFAD918B808BBC01990F880B990B0C
:102AC0000E947D166B017C01AEADBFAD52968D901C
:102AD0009D90AD90BC905597A50194010E94DC1685
:102AE0002AEA31EF42E85FE30E948E18EEADFFADB7
:102AF0006083718382839383E059FF4F2496FFAFF5
:102B0000EEAF249720803180FDE1F49D8001F59D9A
:102B1000100D1124020D131D000F111F000F111FA6
:102B20000F5C1A4FD8016D917D918D919C91EEAD06
:102B3000FFADE459FF4F2696FFAFEEAF26979B01FE
:102B4000AC010E94DC169B01AC012696AEADBFAD78
:102B500026976D917D918D919C910E9421182A96C6
:102B60006CAF7DAF8EAF9FAF2A97F801C082D18244
:102B7000E282F382A7019601C701B6010E94DC162A
:102B80002A962CAD3DAD4EAD5FAD2A970E9422181E
:102B90006B017C012696AEADBFAD2697CD92DD923E
:102BA000ED92FC921397BFEF2B1A3B0A2496EEADE1
:102BB000FFAD249731822082AEADBFAD5A968D9184
:102BC0009C912816390611F411821082B4E7B49D45
:102BD000F001B59DF00D1124E957FA4F20813181A4
:102BE0002817390724F42F5F3F4F31832083E4E710
:102BF000E49D8001E59D100D11240B5E1A4FF80134
:102C0000EE58FF4F60817181072E000C880B990BE5
:102C10000E947D169B01AC01C701B6010E948E186F
:102C20000E9449199B01AC01C501B4010E94DC1648
:102C30002AEA31EF42E85FE30E948E18D801149629
:102C40006D937D938D939C93179756962D913D91FF
:102C50004D915C9159970E948E18F8016087718799
:102C6000828793872DEC3CEC4CEC5DE30E94DC16F4
:102C70000E940019F301EE0FFF1FE151FC4F20816C
:102C800031812617370709F08FCEE0CDBB274A30B8
:102C900031F4992322F4BDE2909581959F4F0C94D5
:102CA0005216BB27FB015527AA27880F991FAA1F79
:102CB000A41710F0A41B83955051B9F7A05DAA3357
:102CC00008F0A95DA193009779F7B111B193119222
:102CD000CB010C946B16DC01FC01672F71917723FB
:102CE000E1F7329704C07C916D9370836291AE17C7
:102CF000BF07C8F30895E89409C097FB3EF4909588
:102D00008095709561957F4F8F4F9F4F9923A9F0C4
:102D1000F92F96E9BB279395F69587957795679553
:102D2000B795F111F8CFFAF4BB0F11F460FF1BC097
:102D30006F5F7F4F8F4F9F4F16C0882311F096E92A
:102D400011C0772321F09EE8872F762F05C06623D8
:102D500071F096E8862F70E060E02AF09A95660F91
:102D6000771F881FDAF7880F9695879597F908954A
:102D7000990F0008550FAA0BE0E8FEEF161617068C
:102D8000E807F907C0F012161306E407F50798F0F4
:102D9000621B730B840B950B39F40A2661F0232B0D
:102DA000242B252B21F408950A2609F4A140A69589
:102DB0008FEF811D811D08950E94EF160C946017FE
:102DC0000E94521738F00E94591720F0952311F0F5
:102DD0000C9449170C944F1711240C9494170E94CB
:102DE000711770F3959FC1F3950F50E0551F629FC7
:102DF000F001729FBB27F00DB11D639FAA27F00D54
:102E0000B11DAA1F649F6627B00DA11D661F829F7A
:102E10002227B00DA11D621F739FB00DA11D621F5F
:102E2000839FA00D611D221F749F3327A00D611D7C
:102E3000231F849F600D211D822F762F6A2F11245E
:102E40009F5750409AF0F1F088234AF0EE0FFF1F91
:102E5000BB1F661F771F881F91505040A9F79E3FE8
:102E6000510580F00C9449170C9494175F3FE4F3DC
:102E7000983ED4F3869577956795B795F795E7953E
:102E80009F5FC1F7FE2B880F911D9695879597F947
:102E9000089597F99F6780E870E060E008959FEFDC
:102EA00080EC089500240A941616170618060906E1
:102EB000089500240A9412161306140605060895B0
:102EC000092E0394000C11F4882352F0BB0F40F438
:102ED000BF2B11F460FF04C06F5F7F4F8F4F9F4F78
:102EE000089557FD9058440F551F59F05F3F71F0FA
:102EF0004795880F97FB991F61F09F3F79F0879561
:102F00000895121613061406551FF2CF4695F1DFE9
:102F100008C0161617061806991FF1CF8695710579
:102F2000610508940895E894BB2766277727CB01AD
:102F300097F90895052E97FB1EF400940E94B1178F
:102F400057FD07D00E94F01707FC03D04EF40C94F5
:102F5000B11750954095309521953F4F4F4F5F4F9A
:102F6000089590958095709561957F4F8F4F9F4FF5
:102F700008952F923F924F925F926F927F928F921D
:102F80009F92AF92BF92CF92DF92EF92FF920F93F8
:102F90001F93CF93DF93CDB7DEB7CA1BDB0B0FB602
:102FA000F894DEBF0FBECDBF09942A8839884888BF
:102FB0005F846E847D848C849B84AA84B984C88455
:102FC000DF80EE80FD800C811B81AA81B981CE0F4C
:102FD000D11D0FB6F894DEBF0FBECDBFED01089531
:102FE000A1E21A2EAA1BBB1BFD010DC0AA1FBB1F0D
:102FF000EE1FFF1FA217B307E407F50720F0A21B7F
:10300000B30BE40BF50B661F771F881F991F1A94EB
:1030100069F760957095809590959B01AC01BD0115
:10302000CF010895A29FB001B39FC001A39F700D6F
:10303000811D1124911DB29F700D811D1124911DC0
:1030400008955058BB27AA270E9439180C9460177E
:103050000E94521738F00E94591720F039F49F3F10
:1030600019F426F40C944F170EF4E095E7FB0C943A
:103070004917E92F0E94711758F3BA1762077307AF
:103080008407950720F079F4A6F50C9493170EF4B5
:10309000E0950B2EBA2FA02D0B01B90190010C0168
:1030A000CA01A0011124FF27591B99F0593F50F480
:1030B000503E68F11A16F040A22F232F342F4427D8
:1030C000585FF3CF469537952795A795F0405395D0
:1030D000C9F77EF41F16BA0B620B730B840BBAF0A0
:1030E0009150A1F0FF0FBB1F661F771F881FC2F70B
:1030F0000EC0BA0F621F731F841F48F4879577951F
:103100006795B795F7959E3F08F0B0CF9395880FD8
:1031100008F09927EE0F9795879508950E94A218B9
:103120000C9460170E94591758F00E94521740F0F3
:1031300029F45F3F29F00C94491751110C9494170E
:103140000C944F170E94711768F39923B1F355231C
:1031500091F3951B550BBB27AA27621773078407AA
:1031600038F09F5F5F4F220F331F441FAA1FA9F340
:1031700035D00E2E3AF0E0E832D091505040E6952E
:10318000001CCAF72BD0FE2F29D0660F771F881F8F
:10319000BB1F261737074807AB07B0E809F0BB0B82
:1031A000802DBF01FF2793585F4F3AF09E3F510596
:1031B00078F00C9449170C9494175F3FE4F3983E11
:1031C000D4F3869577956795B795F7959F5FC9F77F
:1031D000880F911D9695879597F90895E1E0660F00
:1031E000771F881FBB1F621773078407BA0720F079
:1031F000621B730B840BBA0BEE1F88F7E0950895E2
:103200000E9407196894B1110C94941708950E94B4
:10321000791788F09F5798F0B92F9927B751B0F0D8
:10322000E1F0660F771F881F991F1AF0BA95C9F74A
:1032300014C0B13091F00E949317B1E008950C943E
:103240009317672F782F8827B85F39F0B93FCCF3F1
:10325000869577956795B395D9F73EF490958095C7
:10326000709561957F4F8F4F9F4F08950E94B816BC
:1032700008F48FEF08959F930E94A0190F9007FC08
:10328000EE5F0C94C91919F416F40C944F170C94B2
:1032900089190E947917B8F39923C9F3B6F39F5798
:1032A000550B87FF0E9497190024A0E640EA900181
:1032B00080585695979528F4805C660F771F881F75
:1032C00020F026173707480730F4621B730B840B76
:1032D000202931294A2BA6951794079420253125BA
:1032E0004A2758F7660F771F881F20F026173707E1
:1032F000480730F4620B730B840B200D311D411D08
:10330000A09581F7B901842F9158880F96958795DC
:1033100008959F3F31F0915020F4879577956795F8
:10332000B795880F911D9695879597F908959150B7
:103330005040660F771F881FD2F708950C944F17DF
:103340000E947917D8F3E894E0E0BB279F57F0F08C
:103350002AED3FE049EC06C0EE0FBB0F661F771F5A
:10336000881F28F0B23A62077307840728F0B25A20
:10337000620B730B840BE3959A9572F7803830F4E7
:103380009A95BB0F661F771F881FD2F790480C9441
:103390008B19EF93E0FF07C0A2EA2AED3FE049EC6A
:1033A0005FEB0E9439180E9460170F90039401FC94
:1033B0009058E8E6F0E00C94DD199F938F937F938B
:1033C0006F93FF93EF939B01AC010E94DC16EF918A
:1033D000FF910E94F1192F913F914F915F910C94B1
:1033E000DC16DF93CF931F930F93FF92EF92DF9240
:1033F0007B018C01689406C0DA2EEF010E94EF1663
:10340000FE01E894A5912591359145915591A6F33A
:10341000EF010E943918FE019701A801DA9469F7BB
:10342000DF90EF90FF900F911F91CF91DF91089562
:10343000991B79E004C0991F961708F0961B881F06
:103440007A95C9F7809508950E941218B7FF0895DC
:10345000821B930B0895EE0FFF1F0590F491E02D52
:1034600009940F931F93CF93DF938230910510F44B
:1034700082E090E0E0911406F091150630E020E043
:10348000B0E0A0E0309799F42115310509F44AC065
:10349000281B390B24303105D8F58A819B816115B1
:1034A000710589F1FB0193838283FE0111C0408184
:1034B00051810281138148175907E0F048175907D5
:1034C00099F4109761F012960C93129713961C932F
:1034D0003296CF01DF91CF911F910F910895009304
:1034E000140610931506F4CF2115310551F042173B
:1034F000530738F0A901DB019A01BD01DF01F80192
:10350000C1CFEF01F9CF9093150680931406CDCF6C
:10351000FE01E20FF31F8193919322503109398309
:103520002883D7CF2091120630911306232B41F424
:103530002091490130914A013093130620931206DD
:1035400020914701309148012115310541F42DB7F3
:103550003EB740914B0150914C01241B350BE0913B
:103560001206F0911306E217F307A0F42E1B3F0B8F
:103570002817390778F0AC014E5F5F4F24173507E5
:1035800048F04E0F5F1F509313064093120681932D
:1035900091939FCFF0E0E0E09CCFCF93DF93009733
:1035A000E9F0FC01329713821282A0911406B091C7
:1035B0001506ED0130E020E01097A1F42081318163
:1035C000820F931F20911206309113062817390796
:1035D00009F061C0F0931306E0931206DF91CF91DA
:1035E0000895EA01CE17DF07E8F54A815B819E0165
:1035F00041155105B1F7E901FB83EA8349915991DE
:10360000C40FD51FEC17FD0761F4808191810296EC
:10361000840F951FE90199838883828193819B831D
:103620008A83F0E0E0E012968D919C9113970097C9
:10363000B9F52D913C911197CD010296820F931F00
:1036400020911206309113062817390739F6309762
:1036500051F51092150610921406B0931306A0931C
:103660001206BCCFD383C28340815181840F951F42
:10367000C817D90761F44E5F5F4F88819981480F61
:10368000591F518340838A819B81938382832115B3
:10369000310509F0B0CFF0931506E09314069ECFE4
:1036A000FD01DC01C0CF13821282D7CFB0E0A0E0D1
:1036B000ECE5FBE10C94BB178C01009751F4CB01B6
:1036C0000E94311A8C01C801CDB7DEB7E0E10C943D
:1036D000D717FC01E60FF71F9C0122503109E217B2
:1036E000F30708F49DC0D901CD91DC911197C6175D
:1036F000D70798F0C530D10530F3CE01049786176F
:10370000970708F3C61BD70B2297C193D1936D93EC
:103710007C93CF010E94CD1AD6CF5B01AC1ABD0AB3
:103720004C018C0E9D1EA0911406B0911506512CD3
:10373000412CF12CE12C109731F5809112069091DB
:1037400013068815990509F05CC04616570608F05F
:1037500058C08091470190914801009741F48DB77E
:103760009EB740914B0150914C01841B950BE8177B
:10377000F90708F055C0F0931306E0931206F9011B
:1037800071836083A0CF8D919C91119712966C905C
:10379000129713967C901397A815B90559F56C01EB
:1037A00042E0C40ED11CCA14DB0420F1AC014A195A
:1037B0005B09DA011296159780F062827382518359
:1037C0004083D9016D937C93E114F10471F0D7012A
:1037D0001396FC93EE93129776CF22968C0F9D1F33
:1037E000F90191838083F301EFCFF0931506E09305
:1037F000140669CF4816590608F42C017D01D3013F
:103800009ACFCB010E94311A7C01009749F0AE019A
:10381000B8010E94131CC8010E94CD1A870153CF22
:1038200010E000E050CFFB01DC0102C001900D92DE
:1038300041505040D8F70895FB01DC0101900D92F2
:0A3840000020E1F70895F894FFCF8F
:10384A00FF8403DC058403DC058403DC058403842C
:10385A0003DC058403DC058403DC0584038403DCC0
:10386A00058403DC058403DC0584030000E14400CD
:10387A0000E1440000E1440000E1440000E14400AA
:10388A0000E1440000E1440000160680000E000F2B
:10389A0000100011001200130014001500000000AF
:1038AA0000020000000300040005000600000000FA
:1038BA00000700000000000000080009000A000BD1
:1038CA00000C000D000E000F000000000051039DC7
:1038DA0000FA035003AD03C30338030200040005D2
:1038EA0000060007000A000500060007000A000596
:1038FA0000060003000B0021004100830006010BB3
:10390A000216042D085A10230045008B0015012ABF
:10391A00025504A908531125004900930026014BBA
:10392A000297042D095B1227004E009C0037016E96
:10393A0002DD04210B721329005200A5004A0193EB
:10394A000227054D0A9A142C005700AF005D01BAF0
:10395A00027505EA0AD4152E005C00B9007201E46A
:10396A0002C805900B201731006200C400880110BC
:10397A00032006400C801834006800D0009F013FE5
:10398A00037D06FA0CF51937006E00DC00B80170E9
:10399A0003E006C00D801B3A007500E900D201A4BD
:1039AA00034907910E231D3E007B00F700EE01DC60
:1039BA0003B8076F0FDE1E020004000500060007A9
:1039CA00000A0010000000000000000000000001D2
:1039DA0000020000000000000003000100000000D7
:1039EA000000000100020004000500060007000AAA
:1039FA000010001100120013000000000000000176
:103A0A000002000300040005000600070000000190
:103A1A000002000300000000000400050006000781
:103A2A0000020004000500060007000A000E000F4D
:103A3A00001000110012001300140015000000000D
:103A4A00003D019D00CA008F01FB00D900ED003046
:103A5A0030300041542B505357443D0041540D0A15
:103A6A000041542B524F4C453D300D0A0041542B16
:103A7A00554152543D35373630302C312C300D0AF1
:103A8A000041542B434D4F44453D310D0A004154EA
:083A9A002B505357440D0A00A4
:00000001FF
